S01700005265616443617061636974616E63652E7372656345
S11300000C9434000C9451000C9451000C94510045
S11300100C9451000C9451000C9451000C94510018
S11300200C9451000C9451000C9451000C94510008
S11300300C9451000C9451000C94AB000C9451009E
S11300400C9451000C9451000C9451000C945100E8
S11300500C9451000C9451000C9451000C945100D8
S11300600C9451000C94510011241FBECFEFD8E022
S1130070DEBFCDBF11E0A0E0B1E0EEE6F1E002C0EA
S113008005900D92A631B107D9F721E0A6E1B1E0C0
S113009001C01D92A739B207E1F70E94A2000C9497
S11300A0B5000C940000389A3998309A82E084BDE7
S11300B090E197BD80936E00789481E085BD1092A5
S11300C0C50087E68093C40088E48093C10086E07D
S11300D08093C20080E480937C0087E880937A0058
S11300E0089590911601E92FF0E0E95EFE4F8083B8
S11300F09F5F1AF0909316010895109216010895C7
S11301001F93CF93DF93EC0110E007C0FE01E80FCB
S1130110F91F80810E9471001F5F812F90E0FE0112
S113012001900020E9F73197EC1BFD0B8E179F0718
S113013068F38091C00085FD1092C600DF91CF91D5
S11301401F9108950E94530080E091E00E94800076
S113015080E090E008951F920F920FB60F92112441
S11101600F900FBE0F901F901895F894FFCFCC
S113016E52656164696E672063617061636974616D
S109017E6E63650A0D002A
S9030000FC
