S01700005265616443617061636974616E63652E7372656345
S11300000C9434000C9451000C9451000C94510045
S11300100C9451000C9451000C9451000C94510018
S11300200C9451000C9451000C9451000C944B010D
S11300300C9451000C9451000C9451000C945100F8
S11300400C9451000C9451000C9451000C945100E8
S11300500C9422010C9451000C9451000C94510006
S11300600C9451000C94510011241FBECFEFD8E022
S1130070DEBFCDBF11E0A0E0B1E0E4EAF6E002C0EB
S113008005900D92A431B107D9F721E0A4E1B1E0C4
S113009001C01D92AA39B207E1F70E94F4000C9442
S11300A050030C940000389A399A82E080938000BF
S11300B02CE930E0309389002093880080936F000E
S11300C085E08093810080E480937C0087E88093BE
S11300D07A001092C50087E68093C40088E4809378
S11300E0C10086E08093C20078940895ECE7F0E0C4
S11300F09081907F90839081892B8083EAE7F0E060
S1130100808180648083808184FFFDCFEAE7F0E012
S11301108081806180838091780090917900089536
S1130120CF92DF92EF92FF92CF93DF933898419A68
S113013080E00E947600EC014198389ABC01990F46
S1130140880B990B0E9422022AE037ED43EC51E41C
S11301500E94AE026B017C016FEF73E06C1B7D0BA0
S1130160072E000C880B990B0E9422029B01AC0104
S1130170C701B6010E947801DF91CF91FF90EF9003
S1130180DF90CF90089590911401E92FF0E0E65E9E
S1130190FE4F80839F5F1AF090931401089510928C
S11301A0140108951F93CF93DF93EC0110E007C06F
S11301B0FE01E80FF91F80810E94C3001F5F812F99
S11301C090E0FE0101900020E9F73197EC1BFD0B54
S11301D08E179F0768F38091C00085FD1092C600BA
S11301E0DF91CF911F910895CF93DF93CDB7DEB701
S11301F028970FB6F894DEBF0FBECDBF0E94530000
S113020080E091E00E94D2000E9490000E94EA01E6
S1130210DC01CB014AE0BE016F5F7F4F0E941B03EC
S1130220CE0101960E94D20080E191E00E94D200AA
S11302302FEF83ED90E3215080409040E1F700C020
S11302400000E2CF1F920F920FB60F9211248F93EA
S11302509F93EF93FF93E091150180911401E817A8
S113026089F0F0E0E65EFE4F80818093C6008091C5
S1130270150191E0980F1AF09093150103C08E5F59
S113028080931501FF91EF919F918F910F900FBE75
S11302900F901F9018951F920F920FB60F92112472
S11302A08F939F93AF93BF93809116019091170101
S11302B0A0911801B09119010196A11DB11D80935F
S11302C0160190931701A0931801B093190180911E
S11302D0160190911701A0911801B0911901BF91D5
S11302E0AF919F918F910F900FBE0F901F90189513
S11302F00E948C010C9474020E946D0258F00E94BA
S1130300660240F029F45F3F29F00C945D0251111C
S11303100C94A8020C9463020E94850268F399234A
S1130320B1F3552391F3951B550BBB27AA276217ED
S11303307307840738F09F5F5F4F220F331F441FFA
S1130340AA1FA9F335D00E2E3AF0E0E832D091502E
S11303505040E695001CCAF72BD0FE2F29D0660F1B
S1130360771F881FBB1F261737074807AB07B0E85E
S113037009F0BB0B802DBF01FF2793585F4F3AF064
S11303809E3F510578F00C945D020C94A8025F3FE7
S1130390E4F3983ED4F3869577956795B795F795EA
S11303A09F5FC9F7880F911D9695879597F90895D2
S11303B0E1E0660F771F881FBB1F6217730784076E
S11303C0BA0720F0621B730B840BBA0BEE1F88F77D
S11303D0E09508950E94F1016894B1110C94A8026B
S11303E008950E948D0288F09F5798F0B92F99279D
S11303F0B751B0F0E1F0660F771F881F991F1AF00C
S1130400BA95C9F714C0B13091F00E94A702B1E0C7
S113041008950C94A702672F782F8827B85F39F0C6
S1130420B93FCCF3869577956795B395D9F73EF4A4
S113043090958095709561957F4F8F4F9F4F08954C
S1130440E89409C097FB3EF490958095709561956A
S11304507F4F8F4F9F4F9923A9F0F92F96E9BB2720
S11304609395F695879577956795B795F111F8CF9C
S1130470FAF4BB0F11F460FF1BC06F5F7F4F8F4F07
S11304809F4F16C0882311F096E911C0772321F0FD
S11304909EE8872F762F05C0662371F096E8862F95
S11304A070E060E02AF09A95660F771F881FDAF7EC
S11304B0880F9695879597F9089597F99F6780E82F
S11304C070E060E008959FEF80EC089500240A94A2
S11304D01616170618060906089500240A9412161B
S11304E01306140605060895092E0394000C11F44E
S11304F0882352F0BB0F40F4BF2B11F460FF04C0FB
S11305006F5F7F4F8F4F9F4F089557FD9058440F53
S1130510551F59F05F3F71F04795880F97FB991F5E
S113052061F09F3F79F0879508951216130614061B
S1130530551FF2CF4695F1DF08C0161617061806A8
S1130540991FF1CF86957105610508940895E89483
S1130550BB2766277727CB0197F908950E94C1022C
S11305600C9474020E94660238F00E946D0220F01E
S1130570952311F00C945D020C94630211240C94E5
S1130580A8020E94850270F3959FC1F3950F50E075
S1130590551F629FF001729FBB27F00DB11D639F31
S11305A0AA27F00DB11DAA1F649F6627B00DA11DD7
S11305B0661F829F2227B00DA11D621F739FB00D7D
S11305C0A11D621F839FA00D611D221F749F3327ED
S11305D0A00D611D231F849F600D211D822F762F86
S11305E06A2F11249F5750409AF0F1F088234AF063
S11305F0EE0FFF1FBB1F661F771F881F91505040CF
S1130600A9F79E3F510580F00C945D020C94A8025A
S11306105F3FE4F3983ED4F3869577956795B79555
S1130620F795E7959F5FC1F7FE2B880F911D96956F
S1130630879597F90895BB274A3031F4992322F41A
S1130640BDE2909581959F4F0C942703BB27FB0136
S11306505527AA27880F991FAA1FA41710F0A41BB7
S113066083955051B9F7A05DAA3308F0A95DA19311
S1130670009779F7B111B1931192CB010C94400317
S1130680DC01FC01672F71917723E1F7329704C0F5
S11306907C916D9370836291AE17BF07C8F3089580
S10706A0F894FFCFF8
S11306A4526561642063617061636974616E63653A
S10706B40A0D000027
S9030000FC
