:100000000C9434000C9446000C9446000C9446006A
:100010000C9446000C9446000C9446000C94460048
:100020000C9446000C9446000C9446000C948F00EF
:100030000C9446000C9446000C9446000C94460028
:100040000C9446000C9446000C9446000C94460018
:100050000C9466000C9446000C9446000C944600E8
:100060000C9446000C94460011241FBECFEFD8E03C
:10007000DEBFCDBF21E0A0E0B1E001C01D92A638F7
:10008000B207E1F70E9463000C94BC000C940000DE
:1000900080E284B9389A3998409A82E0809380004F
:1000A0002CE930E0309389002093880080936F0022
:1000B00085E08093810080E480937C0087E88093D2
:1000C0007A00789408950E944800FFCF1F920F9203
:1000D0000FB60F9211248F939F93EF93FF93E091AC
:1000E000010180910001E81789F0F0E0EA5FFE4F1E
:1000F00080818093C6008091010191E0980F1AF0F1
:100100009093010103C08E5F80930101FF91EF91F5
:100110009F918F910F900FBE0F901F9018951F9277
:100120000F920FB60F9211248F939F93AF93BF93AB
:100130008091020190910301A0910401B091050109
:100140000196A11DB11D8093020190930301A0931C
:100150000401B09305018091020190910301A091E7
:100160000401B0910501BF91AF919F918F910F90C4
:0C0170000FBE0F901F901895F894FFCF61
:00000001FF
