:100000000C9434000C943E000C943E000C943E0082
:100010000C943E000C943E000C943E000C943E0068
:100020000C943E000C943E000C943E000C943E0058
:100030000C943E000C943E000C9458000C943E002E
:100040000C943E000C943E000C943E000C943E0038
:100050000C943E000C943E000C943E000C943E0028
:100060000C943E000C943E0011241FBECFEFD8E04C
:10007000DEBFCDBF0E9453000C9462000C940000C0
:10008000389A3998409A82E084BD90E197BD809378
:100090006E0081E085BD80E480937C0087E88093DA
:1000A0007A00789408950E94400080E090E00895DE
:1000B0001F920F920FB60F9211240F900FBE0F9048
:0800C0001F901895F894FFCF82
:00000001FF
