:100000000C943E000C945B000C945B000C945B0021
:100010000C945B000C945B000C945B000C945B00F4
:100020000C945B000C945B000C945B000C94FE023F
:100030000C945B000C945B000C945B000C945B00D4
:100040000C945B000C945B000C945B000C945B00C4
:100050000C945B000C945B000C945B000C945B00B4
:100060000C945B000C945B00BD00D100FA002301EE
:100070004C0175019E01BD01D001F90111241FBE83
:10008000CFEFD8E0DEBFCDBF12E0A0E0B1E0EEE5FB
:10009000F5E202C005900D92A235B107D9F722E032
:1000A000A2E5B2E001C01D92A93FB207E1F70E94AC
:1000B000CD020C94AD120C9400002FEF84E39CE071
:1000C000215080409040E1F700C0000089E291E0BB
:1000D0009F938F930E94750F8AE491E00E942D0AEE
:1000E0006AE28AE290E00E94641238988AB18C60D9
:1000F0008AB9399A3A9AF89410928000E1E8F0E0CF
:10010000108280EF9CE39093890080938800808127
:100110008860808380818160808380818460808327
:10012000EFE6F0E080818260808380E480937C0051
:1001300087E880937A0078948FE19EE40197F1F745
:1001400000C000000F900F908091520290915302D6
:10015000019741F489E691E09F938F930E94750F78
:100160000F900F900895FA013197EA30F10508F0E9
:1001700052C1EC5CFF4F0C94F70D409744F4E0EB58
:10018000F2E080E38083DB018C9181830895E0EBD2
:10019000F2E0DB0111968C91119780838C91818321
:1001A0000895803191054CF4E0EBF2E080E3828326
:1001B0008383DB018C91848308954097803F910570
:1001C00060F4E0EBF2E080E38283DB0111968C9136
:1001D000119783838C9184830895FB018281E0EBE6
:1001E000F2E08283DB0111968C91119783838C91CD
:1001F00084830895803191054CF4E0EBF2E080E3D4
:1002000085838683DB018C91878308954097803FA7
:10021000910560F4E0EBF2E080E38583DB01119669
:100220008C91119786838C9187830895FB0182813D
:10023000E0EBF2E08583DB0111968C9111978683C8
:100240008C9187830895803191054CF4E0EBF2E0C6
:1002500080E380878187DB018C91828708954097B6
:10026000803F910560F4E0EBF2E080E38087DB0102
:1002700011968C91119781878C9182870895FB014B
:100280008281E0EBF2E08087DB0111968C9111977F
:1002900081878C9182870895803191054CF4E0EB41
:1002A000F2E080E383878487DB018C918587089562
:1002B0004097803F910560F4E0EBF2E080E38387B4
:1002C000DB0111968C91119784878C918587089515
:1002D000FB018281E0EBF2E08387DB0111968C91D8
:1002E000119784878C9185870895803191054CF40E
:1002F000E0EBF2E080E386878787DB018C91808BDF
:1003000008954097803F910560F4E0EBF2E080E3D0
:100310008687DB0111968C91119787878C91808B52
:100320000895FB018281E0EBF2E08687DB01119604
:100330008C91119787878C91808B089599233CF439
:100340002DE22093C10291958195910903C02BE282
:100350002093C102409744F4E0EBF2E080E3828B0B
:10036000DB018C91838B0895FB018181E0EBF2E04E
:10037000828BDB018C91838B0895409744F4E0EBF2
:10038000F2E080E3848BDB018C91858B0895FB0187
:100390008181E0EBF2E0848BDB018C91858B089509
:1003A000803191054CF4E0EBF2E080E3868B878BA3
:1003B000DB018C91808F08954097803F910560F418
:1003C000E0EBF2E080E3868BDB0111968C911197D4
:1003D000878B8C91808F0895FB018281E0EBF2E0A6
:1003E000868BDB0111968C911197878B8C91808F76
:1003F0000895409744F4E0EBF2E080E3818FDB0165
:100400008C91828F0895FB018181E0EBF2E0818F76
:10041000DB018C91828F0895CF92DF92EF92FF9251
:100420000F931F93CF93DF9300D0CDB7DEB78AE74A
:1004300091E09F938F930E94750F19821A828AE22E
:1004400090E00E945C12082F10E0C8010E94E10AAF
:1004500041E050E068EE72E0C8010E94B3000E94E3
:10046000070A8C010E94E10A42E050E068EE72E067
:10047000C8010E94B30087E393E00E94E10A43E0D1
:1004800050E068EE72E087E393E00E94B30080E200
:1004900093E00E94E10A44E050E068EE72E080E2FE
:1004A00093E00E94B3000E94D4090E94750C6B0176
:1004B0007C01CB010E94E10A45E050E068EE72E069
:1004C000C6010E94B3000E94B2098C010E94E10A99
:1004D00046E050E068EE72E0C8010E94B30086E199
:1004E00090E00E94E10A47E050E068EE72E086E1A9
:1004F00090E00E94B300BE016E5F7F4FCE01019677
:100500000E9428098A81082E000C990B0E94E10A9A
:100510008A8148E050E068EE72E0082E000C990BEA
:100520000E94B3008FE19EE40197F1F700C0000044
:100530008DEE93E00E94E10A49E050E068EE72E03F
:100540008DEE93E00E94B30080E090E00E94E10A0B
:100550004AE050E068EE72E080E090E00E94B30074
:100560000E946D0B80EB92E09F938F9389E991E05D
:100570009F938F930E94750F0F900F900F900F9085
:100580000F900F900F900F90DF91CF911F910F91CF
:10059000FF90EF90DF90CF9008950E94F00B0E94A3
:1005A0005D000E947E080E940C0280EB92E00E9497
:1005B0002D0A2FEF89E698E1215080409040E1F725
:1005C00000C00000F0CF81E090E090935302809350
:1005D000520289EA91E09F938F930E94750F0E94C7
:1005E0000C028FE19EE40197F1F700C0000080EB60
:1005F00092E00E942D0A0F900F9008951F920F9283
:100600000FB60F9211242F933F934F935F936F93E5
:100610007F938F939F93AF93BF93EF93FF930E942A
:10062000070A853F914034F080EC91E00E948B0FE7
:100630000E94E302FF91EF91BF91AF919F918F9143
:100640007F916F915F914F913F912F910F900FBECE
:100650000F901F901895FC01A62FB72F9C012B5FC0
:100660003F4F91919D93E217F307D9F7089580E1E9
:1006700090E00E941F0E20E1FC0111922A95E9F7FB
:100680000895CF93DF93EC01DA01E881F98150817D
:1006900081E090E00A8002C0880F991F0A94E2F777
:1006A0008095852380836EBD0DB407FEFDCF8EB58A
:1006B0008F872115310579F0FD012A0F3B1FDF01DE
:1006C00090819EBD0DB407FEFDCF9EB59C933196E3
:1006D000E217F307A1F7E881F981208181E090E03A
:1006E0000A8002C0880F991F0A94E2F7822B808348
:1006F0008F85DF91CF91089560620E944103089534
:100700000E944103089520E030E040E050E061EEB7
:100710000E9441030895CF93DF931F92CDB7DEB7B8
:1007200020E7298321E030E0AE014F5F5F4F67E0B3
:100730000E947C030F90DF91CF910895FF920F9359
:100740001F93CF93DF931F92CDB7DEB78C01DC01EF
:10075000ED91FC911197429181E090E09C011296FD
:100760000C90129702C0220F331F0A94E2F7242B39
:1007700020831396ED91FC91149742919C0115965C
:100780000C90159702C0220F331F0A94E2F7242B16
:100790002083ED91FC91119740819C0112960C9061
:1007A000129702C0220F331F0A94E2F7242B2083F2
:1007B0001396ED91FC9114973081AC0115960C9035
:1007C000159702C0440F551F0A94E2F7242F209575
:1007D000232320832CB520612CBD2CB520642CBD97
:1007E0001696ED91FC91179742919C0118960C90EA
:1007F000189702C0220F331F0A94E2F7242B20839C
:100800001996ED91FC911A9742919C011B960C90C0
:100810001B9702C0220F331F0A94E2F7242B208378
:100820001C96ED91FC911D9722911E960C9002C092
:10083000880F991F0A94E2F78095822380838CB5F4
:10084000877F8CBD8CB58B7F8CBD8CB58E7F8CBD2E
:100850008CB58D7F8CBD8DB581608DBD8CB58F7D48
:100860008CBD20E030E040E050E062EEC8010E9424
:10087000410320E030E040E050E061EEC8010E941A
:100880004103C8010E948B038FE0898321E030E09F
:10089000AE014F5F5F4F60E0C8010E947C030F2EE6
:1008A000FFE3FF2EF02DF98221E030E0AE014F5F33
:1008B0005F4F61E0C8010E947C03F98221E030E0D3
:1008C000AE014F5F5F4F6CE1C8010E947C0384E082
:1008D000898321E030E0AE014F5F5F4F6DE1C801D9
:1008E0000E947C03198221E030E0AE014F5F5F4F30
:1008F00062E0C8010E947C03198221E030E0AE0171
:100900004F5F5F4F62E0C8010E947C0380E48983EF
:1009100021E030E0AE014F5F5F4F65E0C8010E940B
:100920007C030F90DF91CF911F910F91FF9008955D
:10093000CF93DF931F92CDB7DEB720E3298321E069
:1009400030E0AE014F5F5F4F67E00E947C030F9085
:10095000DF91CF910895CF92DF92EF92FF920F93A4
:100960001F93CF93DF9300D000D000D0CDB7DEB778
:100970008C016B017A010E949804BE016F5F7F4F6A
:10098000C6010E942B0325E030E0AE014F5F5F4FB0
:1009900060E1C8010E947C03BE016F5F7F4FC6010A
:1009A0000E942B0325E030E0AE014F5F5F4F6AE00D
:1009B000C8010E947C03D70192962C9130E0A701D8
:1009C0004E5F5F4F60EAC8010E94410321E030E0C2
:1009D000AE014A5F5F4F60E0C8010E9480038E81D4
:1009E0008E7F8E8321E030E0AE014A5F5F4F60E092
:1009F000C8010E947C03D8011396ED91FC911497D5
:100A0000208181E090E015960C9002C0880F991F1C
:100A10000A94E2F7822B808326960FB6F894DEBF05
:100A20000FBECDBFDF91CF911F910F91FF90EF903F
:100A3000DF90CF9008955A988130910571F01CF4A1
:100A4000892B39F008958230910551F0039759F0C0
:100A500008958BB1837F8BB908955A9A5B98089556
:100A60005B9A5A9808958BB18C608BB90895CF9397
:100A7000DF93D82FC62F8EEE0E9456098D2F0E942D
:100A80008A098C2F0E948A090E948109DF91CF91E7
:100A90000895CF92DF92EF92FF920F931F93CF931F
:100AA000DF93C82FF62ED72FE42E8EEE0E94560924
:100AB0008C2F0E948A098FEE0E947E09EE2009F198
:100AC0000F2D1D2FCC24CA94CE0CD12C8FEFC81A19
:100AD000D80AC0E0D0E0F12CE1E0EE1AF108EC1603
:100AE000FD0629F40E94A709F801808304C00E9432
:100AF0009C09F801808321960F5F1F4FCC15DD05FF
:100B000071F70E948109DF91CF911F910F91FF90A2
:100B1000EF90DF90CF900895CF92DF92EF92FF9207
:100B20006B017C01A4E5B2E028EA32E0FD014481DA
:100B30005581668177814193519361937193E21757
:100B4000F307A9F7C092A402D092A502E092A602F0
:100B5000F092A70260E070E0CB01CD90DD90ED90C7
:100B6000FD906C0D7D1D8E1D9F1DA217B307A9F76B
:100B700025E130E040E050E00E94D80DCA01B90103
:100B8000FF90EF90DF90CF900895CF93DF9300D048
:100B9000CDB7DEB71A82198242E0BE016F5F7F4F88
:100BA0008AEA0E944905898190E0982F88272A8146
:100BB000822B9093E1028093E00242E0BE016F5FDE
:100BC0007F4F8CEA0E944905898190E0982F882701
:100BD0002A81822B9093EE028093ED0242E0BE01C7
:100BE0006F5F7F4F8EEA0E944905898190E0982FC0
:100BF00088272A81822B9093D5028093D40242E0E9
:100C0000BE016F5F7F4F80EB0E944905898190E0B4
:100C1000982F88272A81822B9093A9028093A8027B
:100C200042E0BE016F5F7F4F82EB0E9449058981E0
:100C300090E0982F88272A81822B9093E502809359
:100C4000E40242E0BE016F5F7F4F84EB0E944905E2
:100C5000898190E0982F88272A81822B9093DD024A
:100C60008093DC0242E0BE016F5F7F4F86EB0E9403
:100C70004905898190E0982F88272A81822B9093BB
:100C8000DB028093DA0242E0BE016F5F7F4F88EBA8
:100C90000E944905898190E0982F88272A81822B1C
:100CA0009093AF028093AE0242E0BE016F5F7F4F30
:100CB0008AEB0E944905898190E0982F88272A8134
:100CC000822B9093E3028093E20242E0BE016F5FC9
:100CD0007F4F8CEB0E944905898190E0982F8827EF
:100CE0002A81822B9093E7028093E60242E0BE01C4
:100CF0006F5F7F4F8EEB0E944905898190E0982FAE
:100D000088272A81822B9093DF028093DE020F9046
:100D10000F90DF91CF910895CF92DF92EF92FF92E3
:100D20000F931F93CF93DF9300D0CDB7DEB71A8216
:100D300019826EE284EF0E9437058FE097E20197F7
:100D4000F1F700C0000042E0BE016F5F7F4F86EF09
:100D50000E9449052981822F90E0A0E0B0E044275D
:100D6000582F692F7A2F8A81482B8091DC0290912D
:100D7000DD029A01AB01281B390B41095109A091F1
:100D8000E402B091E5020E94FD0D6B017C010B2E87
:100D9000BFE0F594E794D794C794BA95D1F7B02DF6
:100DA0006091E6027091E702CB01770FAA0BBB0BB3
:100DB000BC01CD01052E5BE0660F771F881F991FD0
:100DC0005A95D1F7502D2091DE023091DF02890132
:100DD000330F220B330BA90198012C0D3D1D4E1D25
:100DE0005F1D0E94D80DC20ED31EE41EF51EC092D8
:100DF000D602D092D702E092D802F092D9020F9098
:100E00000F90DF91CF911F910F91FF90EF90DF90A6
:100E1000CF9008954F925F926F927F928F929F92A0
:100E2000AF92BF92CF92DF92EF92FF920F931F93F8
:100E3000CF93DF93CDB7DEB727970FB6F894DEBF19
:100E40000FBECDBF8E010F5F1F4F83E0F8011192DF
:100E50008A95E9F70E948C0664EF84EF0E943705BB
:100E60008FE19BEC0197F1F700C0000043E0B8016F
:100E700086EF0E9449058090D6029090D702A090FC
:100E8000D802B090D90290EA891A9FE0990AA10885
:100E9000B108A5019401C501B4010E94A60D2B0162
:100EA0003C01A091DA02B091DB029B01AC01012E62
:100EB0001CE055954795379527951A95D1F7102D34
:100EC0000E94080E6C01FF24D7FCF094EF2CA09137
:100ED000D402B091D502A50194010E94080EDC0154
:100EE000CB01072E7DE0B595A795979587957A95C7
:100EF000D1F7702D8C0D9D1DAE1DBF1D0296A11D3D
:100F0000B11DB595A79597958795B595A795979593
:100F100087959C01AD0130584F4F5F4FA091A802BB
:100F2000B091A9020E94FD0D9B01AC01012E1FE0B2
:100F300056954795379527951A95D1F7102D2C83FF
:100F40003D834E835F838981CA80D12CE12CF12CB3
:100F5000FE2CED2CDC2CCC24E82A8B81C82A68944A
:100F600014F8F594E794D794C7941694D1F7A09108
:100F7000AE02B091AF02A30192010E94080E2B01B4
:100F80003C01032E37E175946794579447943A9542
:100F9000D1F7302DA091ED02B091EE02A5019401A0
:100FA0000E94080EDC01CB01072E7BE0B595A795CA
:100FB000979587957A95D1F7702D840D951DA61D6F
:100FC000B71D4091E0025091E102052E000C660B26
:100FD000770B440F551F661F771F440F551F661F61
:100FE000771F840F951FA61FB71F880F991FAA1F71
:100FF000BB1FA7019601281B390B4A0B5B0BAAE606
:10100000B8E10E94FD0D99236CF0660F771F881FD1
:10101000991F2C813D814E815F810E94B60D49014F
:101020005A010CC02C813D814E815F810E94B60D1A
:1010300049015A01880C991CAA1CBB1C9927B7FCB2
:101040009A958B2D7A2D692D9B01AC010E94A60DDE
:101050009B01AC01AEEDBBE00E94FD0D6B017C017C
:10106000A3E4B3EEA50194010E940B0EBB2797FDEC
:10107000B095AB2F6701FF24D7FCF094EF2C8C0DBB
:101080009D1DAE1DBF1D8153914FAF4FBF4F689443
:1010900013F8B595A795979587951694D1F7BC0148
:1010A000CD01680D791D8A1D9B1D6093D002709340
:1010B000D1028093D2029093D3020E948C05609358
:1010C000D0027093D1028093D2029093D3022796DC
:1010D0000FB6F894DEBF0FBECDBFDF91CF911F9149
:1010E0000F91FF90EF90DF90CF90BF90AF909F90C7
:1010F0008F907F906F905F904F900895CF930E9454
:101100002B098AE18A95F1F700C00E94C5050E946B
:101110008C06C5E10E940A07C150E1F7CF910895FE
:10112000EF92FF920F931F93CF93DF9300D000D0E5
:101130001F92CDB7DEB78C01FE01319695E0DF013D
:101140001D929A95E9F7579A5F9ABFEFE0E7F2E0B0
:10115000B150E040F040E1F700C000005F988FE937
:101160009CE80197F1F700C000005F9A57989AE653
:101170009A95F1F700C04F9956C0A5EDAA95F1F7E1
:1011800000004F9B52C0B5EDBA95F1F70000FE018B
:1011900031967E0126E0E20EF11CA1E0B0E024C011
:1011A0002150310919F443C029EC30E04F9BF8CFAE
:1011B00080E58A95F1F74F9B08C09D01042E02C07F
:1011C000220F331F0A94E2F7922B29EC30E003C080
:1011D0002150310971F14F99FBCF4150510920F74E
:1011E0009193EE16FF0621F047E050E090E0DCCF4F
:1011F000579A5F9A8FEF90E7A2E081509040A0400D
:10120000E1F700C0000029813B818A81820F830FB2
:101210009C81890F9D8189130EC0F8013083DB0109
:101220002C9380E009C08FEF07C08FEF05C08FEFD0
:1012300003C08FEF01C08FEF0F900F900F900F90B2
:101240000F90DF91CF911F910F91FF90EF90089534
:101250000E949008089580E28093B800089594EA6F
:101260009093BC00ECEBF0E090819923ECF7909127
:10127000B900987F983011F09031A1F48093BB00B1
:1012800084E88093BC00ECEBF0E080818823ECF7ED
:101290009091B900987F983139F081E0903429F429
:1012A00080E0089581E0089580E00895CF93DF9372
:1012B000ECEBF0E024EAA9EBB0E0CBEBD0E034E8D3
:1012C00044E9208390819923ECF79C91987F983092
:1012D00011F09031B1F78883308390819923ECF736
:1012E0009C91987F903211F0983529F44083908139
:1012F00094FDFDCFE6CFDF91CF9108950E942F0995
:10130000089584E98093BC00ECEBF0E0808184FDDB
:10131000FDCF08958093BB0084E88093BC00ECEB84
:10132000F0E080818823ECF79091B900987F81E00C
:10133000983209F480E0089584EC8093BC00ECEBD3
:10134000F0E080818823ECF78091BB00089584E869
:101350008093BC00ECEBF0E080818823ECF7809177
:10136000BB00089582E090E00E941B0580E00E948F
:10137000BA090895ECE7F0E09081907F9083908126
:10138000892B8083EAE7F0E080818064808380811C
:1013900084FFFDCFEAE7F0E0808180618083809167
:1013A0007800909179000895CF92DF92EF92FF92AA
:1013B000CF93DF933998429A81E00E94BA09EC01F9
:1013C0004298399ABC01990F880B990B0E94AD0C79
:1013D0002AE037ED43EC51E40E94390D6B017C01AA
:1013E0006FEF73E06C1B7D0B072E000C880B990BC5
:1013F0000E94AD0C9B01AC01C701B6010E94030C19
:10140000DF91CF91FF90EF90DF90CF90089583E030
:101410000E94BA090895CF93DF930E943703EC012D
:1014200085E290E09983888322E02A839C838B83E2
:1014300021E02D839F838E8325E028879A878987E3
:1014400023E02B879D878C8784E08E87CE010E94C6
:101450009E03CE01DF91CF910895AF92BF92CF92BC
:10146000DF92EF92FF920F931F93CF93DF93CDB74D
:10147000DEB7C554D1090FB6F894DEBF0FBECDBF9D
:10148000BC018E010F5F1F4FC8010E94490FF80178
:1014900001900020E9F73197CF01801B910B8C015F
:1014A0008E31910514F18E010F5F1F4F8DE1F80110
:1014B00011928A95E9F787E1EAEDF1E0D801019010
:1014C0000D928A95E1F781EF91E09F938F930E94AF
:1014D000750FF80101900020E9F73197CF01801BCB
:1014E000910B8C010F900F9023C04B970CF58E0140
:1014F0000F5F1F4F8DE1F80111928A95E9F784E1A2
:10150000E9E0F2E0D80101900D928A95E1F78DE1D2
:1015100092E09F938F930E94750FF8010190002035
:10152000E9F73197CF01801B910B8C010F900F9041
:10153000FE0131965F01FF93EF9382E392E09F9368
:101540008F930E94750F85E0E4E2F1E0DE015E9684
:1015500001900D928A95E1F70E940B0A6C010E949E
:1015600083037E01F5E2EF0EF11CA801B501C7016E
:101570000E94400FF70101900020E9F7EE1926962E
:10158000EFAF2697AE014D5D5F4FBE01625E7F4FAC
:10159000C6010E94AB040F900F900F900F90CB5B91
:1015A000DF4F0FB6F894DEBF0FBECDBFDF91CF91F6
:1015B0001F910F91FF90EF90DF90CF90BF90AF9071
:1015C000089525E0E8EEF2E0DF011D922A95E9F7A3
:1015D000803191050CF043C08A3091052CF44AE02B
:1015E000BF010E94500F08958C309105E1F034F452
:1015F0008A30910551F00B9779F008958E3091055E
:1016000001F1C4F00F9721F1089581E490E09093E7
:10161000E9028093E802089582E490E09093E90261
:101620008093E802089583E490E09093E902809328
:10163000E802089584E490E09093E9028093E80240
:10164000089585E490E09093E9028093E80208957C
:1016500086E490E09093E9028093E8020895092ED1
:10166000000CAA0BBB0B0097A105B105A9F1E8EE90
:10167000F2E0AC01BD014F705527662770787723E3
:1016800064F44150510961097109406F5F6F6F6FD8
:101690007F6F4F5F5F4F6F4F7F4F4A3051051CF494
:1016A000405D5F4F02C0495C5F4F4193AC01BD019B
:1016B000BB2324F4415F5F4F6F4F7F4FDB01CA01B3
:1016C000689413F8B595A795979587951694D1F7D3
:1016D0000097A105B10569F6089581E090E00E94A8
:1016E0001B0580E00E94BA098A3091052CF4809194
:1016F00006019091070104C09093070180930601B1
:101700009C01875E9109439728F4E0EBF2E08EE4B8
:10171000838F148EC9018F569109879730F4E0EBBF
:10172000F2E08EE4838F85E4848FC9010B978138C2
:10173000910528F4E0EBF2E085E4838F148EC90173
:1017400089549340879730F4E0EBF2E083E5838F90
:1017500085E4848FC901875C9240879728F4E0EB89
:10176000F2E083E5838F148EC9018F5492408797EE
:1017700030F4E0EBF2E083E5838F87E5848FC901E5
:101780008B5E9140879728F4E0EBF2E087E5838F4A
:10179000148E255531402732310530F4E0EBF2E06C
:1017A0008EE4838F87E5848F0895CF93C82F8A3086
:1017B00019F48DE00E94D50BE0ECF0E0808185FF0C
:1017C000FDCFC093C60080E090E0CF910895E0EC9B
:1017D000F0E080818823ECF78091C60090E00895C6
:1017E0001092C50083E38093C40088E18093C10018
:1017F000E3EFF2E086E191E09383828388E091E079
:101800009183808308950E94170C0C94FF0C0E9412
:10181000F80C58F00E94F10C40F029F45F3F29F0D9
:101820000C94E80C51110C94330D0C94EE0C0E94A6
:10183000100D68F39923B1F3552391F3951B550BC4
:10184000BB27AA2762177307840738F09F5F5F4F93
:10185000220F331F441FAA1FA9F335D00E2E3AF0D2
:10186000E0E832D091505040E695001CCAF72BD0EA
:10187000FE2F29D0660F771F881FBB1F261737073B
:101880004807AB07B0E809F0BB0B802DBF01FF276D
:1018900093585F4F3AF09E3F510578F00C94E80C56
:1018A0000C94330D5F3FE4F3983ED4F3869577951F
:1018B0006795B795F7959F5FC9F7880F911D969526
:1018C000879597F90895E1E0660F771F881FBB1F82
:1018D000621773078407BA0720F0621B730B840B2F
:1018E000BA0BEE1F88F7E09508950E947C0C68946F
:1018F000B1110C94330D08950E94180D88F09F5774
:1019000098F0B92F9927B751B0F0E1F0660F771F23
:10191000881F991F1AF0BA95C9F714C0B13091F019
:101920000E94320DB1E008950C94320D672F782F8C
:101930008827B85F39F0B93FCCF3869577956795DE
:10194000B395D9F73EF490958095709561957F4F4A
:101950008F4F9F4F0895E89409C097FB3EF49095F0
:101960008095709561957F4F8F4F9F4F9923A9F078
:10197000F92F96E9BB279395F69587957795679507
:10198000B795F111F8CFFAF4BB0F11F460FF1BC04B
:101990006F5F7F4F8F4F9F4F16C0882311F096E9DE
:1019A00011C0772321F09EE8872F762F05C066238C
:1019B00071F096E8862F70E060E02AF09A95660F45
:1019C000771F881FDAF7880F9695879597F90895FE
:1019D00097F99F6780E870E060E008959FEF80ECE2
:1019E000089500240A941616170618060906089585
:1019F00000240A9412161306140605060895092EEB
:101A00000394000C11F4882352F0BB0F40F4BF2B59
:101A100011F460FF04C06F5F7F4F8F4F9F4F089599
:101A200057FD9058440F551F59F05F3F71F047958F
:101A3000880F97FB991F61F09F3F79F08795089574
:101A4000121613061406551FF2CF4695F1DF08C093
:101A5000161617061806991FF1CF869571056105B0
:101A600008940895E894BB2766277727CB0197F958
:101A700008950E944C0D0C94FF0C0E94F10C38F05C
:101A80000E94F80C20F0952311F00C94E80C0C94B3
:101A9000EE0C11240C94330D0E94100D70F3959FE1
:101AA000C1F3950F50E0551F629FF001729FBB2755
:101AB000F00DB11D639FAA27F00DB11DAA1F649FF1
:101AC0006627B00DA11D661F829F2227B00DA11DA4
:101AD000621F739FB00DA11D621F839FA00D611D2A
:101AE000221F749F3327A00D611D231F849F600D4B
:101AF000211D822F762F6A2F11249F5750409AF074
:101B0000F1F088234AF0EE0FFF1FBB1F661F771FFF
:101B1000881F91505040A9F79E3F510580F00C94CA
:101B2000E80C0C94330D5F3FE4F3983ED4F38695B4
:101B300077956795B795F795E7959F5FC1F7FE2B6A
:101B4000880F911D9695879597F90895DB018F93DE
:101B50009F930E94FD0DBF91AF91A29F800D911D9B
:101B6000A39F900DB29F900D11240895A1E21A2E0B
:101B7000AA1BBB1BFD010DC0AA1FBB1FEE1FFF1F31
:101B8000A217B307E407F50720F0A21BB30BE40B81
:101B9000F50B661F771F881F991F1A9469F76095C8
:101BA0007095809590959B01AC01BD01CF01089582
:101BB000052E97FB1EF400940E94EF0D57FD07D0F1
:101BC0000E94B60D07FC03D04EF40C94EF0D509517
:101BD0004095309521953F4F4F4F5F4F0895909519
:101BE0008095709561957F4F8F4F9F4F0895EE0FB1
:101BF000FF1F0590F491E02D09940E94100EA59FFF
:101C0000900DB49F900DA49F800D911D11240895F7
:101C1000B7FF0C94FD0D0E94FD0D821B930B0895E0
:101C2000A29FB001B39FC001A39F700D811D11241D
:101C3000911DB29F700D811D1124911D08950F9368
:101C40001F93CF93DF938230910510F482E090E0F0
:101C5000E091F102F091F20220E030E0A0E0B0E08B
:101C6000309719F14081518102811381481759073A
:101C7000C8F08417950769F4109731F012960C9309
:101C8000129713961C9327C00093F1021093F2024F
:101C900022C02115310519F04217530718F49A0193
:101CA000BD01EF01DF01F801DBCF21153105F9F0AE
:101CB000281B390B2430310580F48A819B81611502
:101CC000710521F0FB019383828304C09093F2029B
:101CD0008093F102FE01329644C0FE01E20FF31F31
:101CE0008193919322503109398328833AC02091FE
:101CF000EF023091F002232B41F420910201309148
:101D000003013093F0022093EF0220910001309103
:101D100001012115310541F42DB73EB74091040171
:101D200050910501241B350BE091EF02F091F00278
:101D3000E217F307A0F42E1B3F0B2817390778F0A2
:101D4000AC014E5F5F4F2417350748F04E0F5F1F01
:101D50005093F0024093EF028193919302C0E0E030
:101D6000F0E0CF01DF91CF911F910F910895CF93B4
:101D7000DF93009709F481C0FC013297138212822D
:101D8000A091F102B091F202109781F4208131818B
:101D9000820F931F2091EF023091F002281739072C
:101DA00051F5F093F002E093EF0267C0ED0120E0FF
:101DB00030E0CE17DF0740F44A815B819E01411578
:101DC0005105F1F0EA01F5CFD383C28340815181FF
:101DD000840F951FC817D90759F488819981840FFA
:101DE000951F0296918380838A819B81938382834E
:101DF0002115310529F4F093F202E093F1023DC080
:101E0000E901FB83EA8349915991C40FD51FEC176F
:101E1000FD0761F480819181840F951F0296E9018D
:101E200099838883828193819B838A83E0E0F0E0B9
:101E300012968D919C911397009719F0FD01DC018A
:101E4000F7CF8D919C9111979D012E5F3F4F820F8F
:101E5000931F2091EF023091F0022817390769F49F
:101E6000309729F41092F2021092F10202C013820C
:101E70001282B093F002A093EF02DF91CF91089508
:101E8000FB01DC0102C001900D9241505040D8F797
:101E90000895FB01DC0101900D920020E1F7089507
:101EA000BB274A3031F4992322F4BDE29095819505
:101EB0009F4F0C945C0FBB27FB015527AA27880F67
:101EC000991FAA1FA41710F0A41B83955051B9F7AE
:101ED000A05DAA3308F0A95DA193009779F7B1112D
:101EE000B1931192CB010C94B211A0E0B0E0EBE7FA
:101EF000FFE00C948612AE014B5F5F4FFA016191D7
:101F00007191AF018091F5029091F6020E94BB0F92
:101F1000E2E00C94A2120F931F93CF93DF93E09112
:101F2000F502F091F602238121FF1BC08C01D0E065
:101F3000C0E0F80181918F016091F5027091F60285
:101F4000DB011896ED91FC911997882331F00995E2
:101F5000892B79F3DFEFCFEFECCF8AE00995892B5E
:101F600019F08FEF9FEF02C08D2F9C2FDF91CF9143
:101F70001F910F910895ABE0B0E0E1ECFFE00C940D
:101F800076126C017B018A01FC0117821682838123
:101F900081FFCCC1CE0101963C01F6019381F7018E
:101FA00093FD859193FF81917F01882309F4BAC144
:101FB000853239F493FD859193FF81917F018532BC
:101FC00029F4B60190E00E94C211E7CF912C212C98
:101FD000312CFFE1F315D8F08B3279F038F48032F0
:101FE00079F08332A1F4232D20611DC08D3261F080
:101FF000803369F4232D216016C0832D8260382E32
:10200000E32DE4603E2E2AC0F32DF8601DC037FC9E
:102010002DC020ED280F2A3040F08E32B9F436FC66
:1020200081C1232D2064322E19C036FE06C08AE0FD
:10203000989E200D1124922E11C0EAE02E9E200DB4
:102040001124222EF32DF0623F2E08C08C3621F48D
:10205000832D8068382E02C0883641F4F70193FD45
:10206000859193FF81917F018111B3CF982F9F7D3F
:102070009554933028F40C5F1F4F9FE399830DC054
:10208000833631F0833771F0833509F059C021C0B0
:10209000F801808189830E5F1F4F88248394912CDF
:1020A000530113C02801F2E04F0E511CF801A0802B
:1020B000B18036FE03C0692D70E002C06FEF7FEF84
:1020C000C5010E94A7114C018201F32DFF773F2E1D
:1020D00016C0280122E0420E511CF801A080B180F8
:1020E00036FE03C0692D70E002C06FEF7FEFC501BF
:1020F0000E949C114C01F32DF0683F2E820133FCAD
:102100001BC0822D90E088169906B0F4B60180E2DB
:1021100090E00E94C2112A94F4CFF50137FC85911A
:1021200037FE81915F01B60190E00E94C21121103B
:102130002A9421E0821A91088114910471F7E8C071
:10214000843611F0893641F5F80137FE07C0608109
:102150007181828193810C5F1F4F08C06081718102
:10216000072E000C880B990B0E5F1F4FF32DFF7687
:102170003F2E97FF09C090958095709561957F4F90
:102180008F4F9F4FF0683F2E2AE030E0A3010E945E
:10219000FE11882E861845C0853731F4232D2F7EF9
:1021A000B22E2AE030E025C0932D997FB92E8F36CC
:1021B000C1F018F4883579F0B5C0803719F0883748
:1021C00021F0B0C0E92FE061BE2EB4FE0DC0FB2DA2
:1021D000F460BF2E09C034FE0AC0292F2660B22E3B
:1021E00006C028E030E005C020E130E002C020E178
:1021F00032E0F801B7FE07C060817181828193816E
:102200000C5F1F4F06C06081718180E090E00E5F1F
:102210001F4FA3010E94FE11882E8618FB2DFF7709
:102220003F2E36FE0DC0232D2E7FA22E891458F48A
:1022300034FE0BC032FC09C0832D8E7EA82E05C053
:10224000B82CA32C03C0B82C01C0B92CA4FE0FC01D
:10225000FE01E80DF11D8081803321F49A2D997ED5
:10226000A92E09C0A2FE06C0B394B39404C08A2D5F
:10227000867809F0B394A3FC11C0A0FE06C0B21486
:1022800088F4280C922C9B180EC0B21460F4B6018E
:1022900080E290E00E94C211B394F7CFB21418F418
:1022A0002B1802C0982C212CA4FE10C0B60180E38C
:1022B00090E00E94C211A2FE17C0A1FC03C088E7F3
:1022C00090E002C088E590E0B6010CC08A2D8678C7
:1022D00059F0A1FE02C08BE201C080E2A7FC8DE2B2
:1022E000B60190E00E94C211891438F4B60180E36F
:1022F00090E00E94C2119A94F7CF8A94F301E80DFE
:10230000F11D8081B60190E00E94C2118110F5CFCD
:10231000222009F442CEB60180E290E00E94C21170
:102320002A94F6CFF6018681978102C08FEF9FEF46
:102330002B96E2E10C949212FC01059061507040E2
:102340000110D8F7809590958E0F9F1F0895FC017E
:102350006150704001900110D8F7809590958E0FD4
:102360009F1F0895DC01FC01672F71917723E1F72E
:10237000329704C07C916D9370836291AE17BF0752
:10238000C8F308950F931F93CF93DF93FB0123812D
:1023900021FD03C08FEF9FEF2CC022FF16C04681A6
:1023A0005781248135814217530744F4A081B181BC
:1023B0009D012F5F3F4F318320838C93268137818E
:1023C0002F5F3F4F3783268314C08B01EC01FB0145
:1023D0000084F185E02D0995892BE1F6D801169648
:1023E0008D919C911797019617969C938E931697B3
:1023F000CE01DF91CF911F910F910895FA01AA2785
:10240000283051F1203181F1E8946F936E7F6E5F37
:102410007F4F8F4F9F4FAF4FB1E03ED0B4E03CD0E5
:10242000670F781F891F9A1FA11D680F791F8A1FC8
:10243000911DA11D6A0F711D811D911DA11D20D02F
:1024400009F468943F912AE0269F11243019305DE9
:102450003193DEF6CF010895462F4770405D4193DA
:10246000B3E00FD0C9F7F6CF462F4F70405D4A3327
:1024700018F0495D31FD4052419302D0A9F7EACFEF
:10248000B4E0A6959795879577956795BA95C9F71E
:1024900000976105710508959B01AC010A2E069411
:1024A0005795479537952795BA95C9F7620F731FCA
:1024B000841F951FA01D0895F999FECF92BD81BD7F
:1024C000F89A992780B50895262FF999FECF92BDE5
:1024D00081BDF89A019700B4021639F01FBA20BDE9
:1024E0000FB6F894FA9AF99A0FBE08952F923F9278
:1024F0004F925F926F927F928F929F92AF92BF9214
:10250000CF92DF92EF92FF920F931F93CF93DF93BF
:10251000CDB7DEB7CA1BDB0B0FB6F894DEBF0FBE1C
:10252000CDBF09942A88398848885F846E847D8469
:102530008C849B84AA84B984C884DF80EE80FD806B
:102540000C811B81AA81B981CE0FD11D0FB6F894E1
:0E255000DEBF0FBECDBFED010895F894FFCFA2
:10255E000000F90220000B00000000010000000046
:10256E000000E70B00000000000200000000D50B89
:10257E0000000000E7E7E7E7E7454D5320697320C9
:10258E0072756E6E696E672C206E6F206572726F3B
:10259E00727320666F756E640D00454D532069731E
:1025AE002072756E6E696E672023232323232323E7
:1025BE00232323232323232300416C657274206479
:1025CE0065746563746564200D0046756E63746989
:1025DE006F6E206761746865724461746128293B6F
:1025EE002063616C6C65640D004461746173747278
:1025FE0065616D3A2025730D005265616C74696DCD
:10260E0065206461746120656E61626C65640D00A5
:10261E00476173206465746563746564004D65730A
:10262E00736167653A2025730D004572726F723AB9
:10263E0020737472696E6720746F6F206C6F6E6793
:10264E00004572726F723A20737472696E672074ED
:10265E006F6F206C6F6E670D004572726F723A204D
:10266E006D697373696E672064617461004572727F
:10267E006F723A206D697373696E6720646174615D
:10268E000D005472616E736D697474696E672025E6
:10269E00730D0044617461207265636569766564CB
:0226AE000D001D
:00000001FF
