:100000000C943E000C945B000C945B000C945B0021
:100010000C945B000C945B000C945B000C945B00F4
:100020000C945B000C945B000C945B000C94A60297
:100030000C945B000C945B000C945B000C945B00D4
:100040000C945B000C945B000C945B000C945B00C4
:100050000C945B000C945B000C945B000C945B00B4
:100060000C945B000C945B00A900BD00E6000F013E
:10007000380161018A01A901BC01E50111241FBEFB
:10008000CFEFD8E0DEBFCDBF12E0A0E0B1E0E2E903
:10009000F6E102C005900D92A234B107D9F722E033
:1000A000A2E4B2E001C01D92A937B207E1F70E94B5
:1000B0009A000C94470B0C94000087E291E09F9308
:1000C0008F930E9451088AB188638AB980E090E0DA
:1000D0000E941B05389A399A579A5F9882E080935C
:1000E00080002CE930E030938B0020938A008093CD
:1000F0006F0081E08093810080E480937C0087E83A
:1001000080937A0078948FE39CE90197F1F700C01F
:1001100000000F900F90809142029091430201974E
:1001200041F488E491E09F938F930E9451080F90CF
:100130000F9008950E94E2060E945D00FFCFFA0131
:100140003197EA30F10508F052C1EC5CFF4F0C9496
:10015000F506409744F4EAE4F2E080E38083DB01B3
:100160008C9181830895EAE4F2E0DB0111968C9191
:10017000119780838C9181830895803191054CF48F
:10018000EAE4F2E080E382838383DB018C91848361
:1001900008954097803F910560F4EAE4F2E080E33F
:1001A0008283DB0111968C91119783838C918483D8
:1001B0000895FB018281EAE4F2E08283DB0111967B
:1001C0008C91119783838C9184830895803191055C
:1001D0004CF4EAE4F2E080E385838683DB018C91D2
:1001E000878308954097803F910560F4EAE4F2E048
:1001F00080E38583DB0111968C91119786838C9126
:1002000087830895FB018281EAE4F2E08583DB01C4
:1002100011968C91119786838C91878308958031F4
:1002200091054CF4EAE4F2E080E380878187DB010A
:100230008C91828708954097803F910560F4EAE4AD
:10024000F2E080E38087DB0111968C911197818722
:100250008C9182870895FB018281EAE4F2E0808735
:10026000DB0111968C91119781878C91828708957B
:10027000803191054CF4EAE4F2E080E383878487DF
:10028000DB018C91858708954097803F910560F44C
:10029000EAE4F2E080E38387DB0111968C91119709
:1002A00084878C9185870895FB018281EAE4F2E0DE
:1002B0008387DB0111968C91119784878C918587B8
:1002C0000895803191054CF4EAE4F2E080E38687FA
:1002D0008787DB018C91808B08954097803F910543
:1002E00060F4EAE4F2E080E38687DB0111968C910A
:1002F000119787878C91808B0895FB018281EAE4B6
:10030000F2E08687DB0111968C91119787878C919B
:10031000808B089599233CF42DE220935B02919504
:100320008195910903C02BE220935B02409744F42E
:10033000EAE4F2E080E3828BDB018C91838B089509
:10034000FB018181EAE4F2E0828BDB018C91838BFB
:100350000895409744F4EAE4F2E080E3848BDB0103
:100360008C91858B0895FB018181EAE4F2E0848B16
:10037000DB018C91858B0895803191054CF4EAE482
:10038000F2E080E3868B878BDB018C91808F089570
:100390004097803F910560F4EAE4F2E080E3868BC9
:1003A000DB0111968C911197878B8C91808F08952A
:1003B000FB018281EAE4F2E0868BDB0111968C91ED
:1003C0001197878B8C91808F0895409744F4EAE4CD
:1003D000F2E080E3818FDB018C91828F0895FB0135
:1003E0008181EAE4F2E0818FDB018C91828F0895B4
:1003F000CF93DF9389E591E09F938F930E945108FB
:100400008AE290E00E94080BC82FD0E0CE010E9443
:10041000360641E050E06AE672E0CE010E949F009D
:1004200084EF91E00E94360642E050E06AE672E016
:1004300084EF91E00E949F008CEB92E00E943606D0
:1004400043E050E06AE672E08CEB92E00E949F008D
:1004500084ED92E00E94360644E050E06AE672E0E5
:1004600084ED92E00E949F008AEF90E00E943606A1
:1004700045E050E06AE672E08AEF90E00E949F005B
:1004800086E990E00E94360646E050E06AE672E0B7
:1004900086E990E00E949F0088E190E00E94360685
:1004A00047E050E06AE672E088E190E00E949F0039
:1004B00087E390E00E94360648E050E06AE672E08A
:1004C00087E390E00E949F008DEE93E00E94360645
:1004D00049E050E06AE672E08DEE93E00E949F00F2
:1004E0008EE090E00E9436064AE050E06AE672E054
:1004F0008EE090E00E949F000E94BC068AE492E099
:100500009F938F9388E791E09F938F930E94510868
:100510000F900F900F900F900F900F90DF91CF9151
:10052000089581E090E0909343028093420288E82E
:1005300091E09F938F930E9451080E94F8018AE4F2
:1005400092E00E9482050F900F9008951F920F92E3
:100550000FB60F9211242F933F934F935F936F9396
:100560007F938F939F93AF93BF93EF93FF9380916C
:10057000460290914702A0914802B091490201962B
:10058000A11DB11D8093460290934702A09348029B
:10059000B09349028091460290914702A09148028F
:1005A000B0914902813F9C43A105B10598F1109299
:1005B00046021092470210924802109249020E948D
:1005C0005C0581399140CCF081E090E0909343024A
:1005D0008093420288E491E09F938F930E94510898
:1005E0008FE991E09F938F930E9451080E9491029E
:1005F0000F900F900F900F9004C010924302109232
:1006000042028091440290914502019690934502E6
:10061000809344028091440290914502CC9754F01B
:1006200010924502109244020E94F8018AE492E07E
:100630000E948205FF91EF91BF91AF919F918F91A1
:100640007F916F915F914F913F912F910F900FBECE
:100650000F901F901895FC01A62FB72F9C012B5FC0
:100660003F4F91919D93E217F307D9F7089580E1E9
:1006700090E00E94FB0620E1FC0111922A95E9F727
:100680000895CF93DF93EC01DA01E881F98150817D
:1006900081E090E00A8002C0880F991F0A94E2F777
:1006A0008095852380836EBD0DB407FEFDCF8EB58A
:1006B0008F872115310579F0FD012A0F3B1FDF01DE
:1006C00090819EBD0DB407FEFDCF9EB59C933196E3
:1006D000E217F307A1F7E881F981208181E090E03A
:1006E0000A8002C0880F991F0A94E2F7822B808348
:1006F0008F85DF91CF91089560620E944103089534
:100700000E944103089520E030E040E050E061EEB7
:100710000E9441030895CF93DF931F92CDB7DEB7B8
:1007200020E7298321E030E0AE014F5F5F4F67E0B3
:100730000E947C030F90DF91CF910895FF920F9359
:100740001F93CF93DF931F92CDB7DEB78C01DC01EF
:10075000ED91FC911197429181E090E09C011296FD
:100760000C90129702C0220F331F0A94E2F7242B39
:1007700020831396ED91FC91149742919C0115965C
:100780000C90159702C0220F331F0A94E2F7242B16
:100790002083ED91FC91119740819C0112960C9061
:1007A000129702C0220F331F0A94E2F7242B2083F2
:1007B0001396ED91FC9114973081AC0115960C9035
:1007C000159702C0440F551F0A94E2F7242F209575
:1007D000232320832CB520612CBD2CB520642CBD97
:1007E0001696ED91FC91179742919C0118960C90EA
:1007F000189702C0220F331F0A94E2F7242B20839C
:100800001996ED91FC911A9742919C011B960C90C0
:100810001B9702C0220F331F0A94E2F7242B208378
:100820001C96ED91FC911D9722911E960C9002C092
:10083000880F991F0A94E2F78095822380838CB5F4
:10084000877F8CBD8CB58B7F8CBD8CB58E7F8CBD2E
:100850008CB58D7F8CBD8DB581608DBD8CB58F7D48
:100860008CBD20E030E040E050E062EEC8010E9424
:10087000410320E030E040E050E061EEC8010E941A
:100880004103C8010E948B038FE0898321E030E09F
:10089000AE014F5F5F4F60E0C8010E947C030F2EE6
:1008A000FFE3FF2EF02DF98221E030E0AE014F5F33
:1008B0005F4F61E0C8010E947C03F98221E030E0D3
:1008C000AE014F5F5F4F6CE1C8010E947C0384E082
:1008D000898321E030E0AE014F5F5F4F6DE1C801D9
:1008E0000E947C03198221E030E0AE014F5F5F4F30
:1008F00062E0C8010E947C03198221E030E0AE0171
:100900004F5F5F4F62E0C8010E947C0380E48983EF
:1009100021E030E0AE014F5F5F4F65E0C8010E940B
:100920007C030F90DF91CF911F910F91FF9008955D
:10093000CF93DF931F92CDB7DEB720E3298321E069
:1009400030E0AE014F5F5F4F67E00E947C030F9085
:10095000DF91CF910895CF92DF92EF92FF920F93A4
:100960001F93CF93DF9300D000D000D0CDB7DEB778
:100970008C016B017A010E949804BE016F5F7F4F6A
:10098000C6010E942B0325E030E0AE014F5F5F4FB0
:1009900060E1C8010E947C03BE016F5F7F4FC6010A
:1009A0000E942B0325E030E0AE014F5F5F4F6AE00D
:1009B000C8010E947C03D70192962C9130E0A701D8
:1009C0004E5F5F4F60EAC8010E94410321E030E0C2
:1009D000AE014A5F5F4F60E0C8010E9480038E81D4
:1009E0008E7F8E8321E030E0AE014A5F5F4F60E092
:1009F000C8010E947C03D8011396ED91FC911497D5
:100A0000208181E090E015960C9002C0880F991F1C
:100A10000A94E2F7822B808326960FB6F894DEBF05
:100A20000FBECDBFDF91CF911F910F91FF90EF903F
:100A3000DF90CF90089582309105A9F02CF40097B3
:100A400049F0019759F008958330910589F0049792
:100A5000A1F008958BB1877C8BB908955B9A8BB117
:100A60008F7C8BB908955C9A8BB1877D8BB9089583
:100A70008BB188618BB95D9808955D9A8BB1877E43
:100A80008BB90895ECE7F0E09081907F908390819E
:100A9000892B8083EAE7F0E0808180648083808115
:100AA00084FFFDCFEAE7F0E0808180618083809160
:100AB000780090917900089586E00E94420508959B
:100AC000CF93DF930E943703EC0185E290E0998396
:100AD000888321E02A839C838B8322E02D839F835C
:100AE0008E8325E028879A87898723E02B879D8737
:100AF0008C8784E08E87CE010E949E03CE01DF9119
:100B0000CF910895AF92BF92CF92DF92EF92FF9272
:100B10000F931F93CF93DF93CDB7DEB7C654D109A0
:100B20000FB6F894DEBF0FBECDBFBC018E010F5FC4
:100B30001F4FC8010E942508F80101900020E9F725
:100B40003197CF01801B910B8C018E31910514F1EF
:100B50008E010F5F1F4F8EE1F80111928A95E9F720
:100B600087E1E8EDF1E0D80101900D928A95E1F777
:100B70008FEE91E09F938F930E945108F8010190AE
:100B80000020E9F73197CF01801B910B8C010F906A
:100B90000F9023C04C970CF58E010F5F1F4F8EE115
:100BA000F80111928A95E9F787E1E8EDF1E0D801C3
:100BB00001900D928A95E1F787E092E09F938F93E1
:100BC0000E945108F80101900020E9F73197CF0108
:100BD000801B910B8C010F900F90FE0131965F01ED
:100BE000FF93EF938CE192E09F938F930E945108C3
:100BF00085E0E2E2F1E0DE015F9601900D928A95D8
:100C0000E1F70E9460056C010E9483037E01F6E219
:100C1000EF0EF11CA801B501C7010E941C08F701E5
:100C200001900020E9F7EE192796EFAF2797AE0164
:100C30004C5D5F4FBE01615E7F4FC6010E94AB04F9
:100C40000F900F900F900F90CA5BDF4F0FB6F89484
:100C5000DEBF0FBECDBFDF91CF911F910F91FF90EF
:100C6000EF90DF90CF90BF90AF90089580319105C5
:100C70000CF044C08A30910534F44AE06AE672E030
:100C80000E942C0808958C309105E1F034F48A30EC
:100C9000910551F00B9779F008958E30910501F18F
:100CA000C4F00F9721F1089581E490E090936B02D6
:100CB00080936A02089582E490E090936B0280939F
:100CC0006A02089583E490E090936B0280936A0235
:100CD000089584E490E090936B0280936A020895F3
:100CE00085E490E090936B0280936A02089586E415
:100CF00090E090936B0280936A020895092E000C95
:100D0000AA0BBB0B0097A105B105A9F1EAE6F2E039
:100D1000AC01BD014F70552766277078772364F4C6
:100D20004150510961097109406F5F6F6F6F7F6FAB
:100D30004F5F5F4F6F4F7F4F4A3051051CF4405D4E
:100D40005F4F02C0495C5F4F4193AC01BD01BB23C3
:100D500024F4415F5F4F6F4F7F4FDB01CA016894FE
:100D600013F8B595A795979587951694D1F70097A1
:100D7000A105B10569F6089583E090E00E941B0586
:100D800087E00E9442058EE4809365020895CF9328
:100D9000C82F8A3019F48DE00E94C706E0ECF0E01D
:100DA000808185FFFDCFC093C60080E090E0CF91A9
:100DB0000895E0ECF0E080818823ECF78091C60094
:100DC00090E008951092C50087E68093C40088E102
:100DD0008093C100E3E7F2E084E191E093838283B2
:100DE00086E091E0918380830895EE0FFF1F0590C8
:100DF000F491E02D09940F931F93CF93DF938230EA
:100E0000910510F482E090E0E0917102F09172029D
:100E100020E030E0A0E0B0E0309719F1408151814E
:100E20000281138148175907C8F08417950769F4A0
:100E3000109731F012960C93129713961C9327C0BB
:100E4000009371021093720222C02115310519F02E
:100E50004217530718F49A01BD01EF01DF01F801B1
:100E6000DBCF21153105F9F0281B390B2430310572
:100E700080F48A819B816115710521F0FB019383C8
:100E8000828304C09093720280937102FE013296B5
:100E900044C0FE01E20FF31F819391932250310968
:100EA000398328833AC020916F0230917002232B3E
:100EB00041F420910201309103013093700220939C
:100EC0006F0220910001309101012115310541F49B
:100ED0002DB73EB74091040150910501241B350BFD
:100EE000E0916F02F0917002E217F307A0F42E1B5D
:100EF0003F0B2817390778F0AC014E5F5F4F24177E
:100F0000350748F04E0F5F1F5093700240936F02F9
:100F10008193919302C0E0E0F0E0CF01DF91CF91A7
:100F20001F910F910895CF93DF93009709F481C02B
:100F3000FC01329713821282A0917102B091720269
:100F4000109781F420813181820F931F20916F02CD
:100F5000309170022817390751F5F0937002E09331
:100F60006F0267C0ED0120E030E0CE17DF0740F4EC
:100F70004A815B819E0141155105F1F0EA01F5CFEF
:100F8000D383C28340815181840F951FC817D9072D
:100F900059F488819981840F951F029691838083EB
:100FA0008A819B81938382832115310529F4F093F3
:100FB0007202E09371023DC0E901FB83EA8349912B
:100FC0005991C40FD51FEC17FD0761F48081918101
:100FD000840F951F0296E90199838883828193810A
:100FE0009B838A83E0E0F0E012968D919C911397A9
:100FF000009719F0FD01DC01F7CF8D919C911197BD
:101000009D012E5F3F4F820F931F20916F02309101
:1010100070022817390769F4309729F41092720288
:101020001092710202C013821282B0937002A093D8
:101030006F02DF91CF910895FB01DC0102C00190A6
:101040000D9241505040D8F70895FB01DC0101900A
:101050000D920020E1F70895BB274A3031F499231F
:1010600022F4BDE2909581959F4F0C943808BB27E0
:10107000FB015527AA27880F991FAA1FA41710F054
:10108000A41B83955051B9F7A05DAA3308F0A95D60
:10109000A193009779F7B111B1931192CB010C9400
:1010A0005E0AA0E0B0E0E7E5F8E00C94200BAE01AA
:1010B0004B5F5F4FFA0161917191AF0180917502B1
:1010C000909176020E946708E2E00C943C0BABE042
:1010D000B0E0EDE6F8E00C94100B6C017B018A01A6
:1010E000FC0117821682838181FFCCC1CE0101965B
:1010F0003C01F6019381F70193FD859193FF819166
:101100007F01882309F4BAC1853239F493FD8591B2
:1011100093FF81917F01853229F4B60190E00E940E
:101120006E0AE7CF912C212C312CFFE1F315D8F07A
:101130008B3279F038F4803279F08332A1F4232DA8
:1011400020611DC08D3261F0803369F4232D216050
:1011500016C0832D8260382EE32DE4603E2E2AC017
:10116000F32DF8601DC037FC2DC020ED280F2A306C
:1011700040F08E32B9F436FC81C1232D2064322E2A
:1011800019C036FE06C08AE0989E200D1124922ECA
:1011900011C0EAE02E9E200D1124222EF32DF062C4
:1011A0003F2E08C08C3621F4832D8068382E02C073
:1011B000883641F4F70193FD859193FF81917F017A
:1011C0008111B3CF982F9F7D9554933028F40C5FF5
:1011D0001F4F9FE399830DC0833631F0833771F041
:1011E000833509F059C021C0F801808189830E5FE1
:1011F0001F4F88248394912C530113C02801F2E0DF
:101200004F0E511CF801A080B18036FE03C0692D3D
:1012100070E002C06FEF7FEFC5010E94530A4C01DE
:101220008201F32DFF773F2E16C0280122E0420EE7
:10123000511CF801A080B18036FE03C0692D70E01A
:1012400002C06FEF7FEFC5010E94480A4C01F32DE9
:10125000F0683F2E820133FC1BC0822D90E088167F
:101260009906B0F4B60180E290E00E946E0A2A94DA
:10127000F4CFF50137FC859137FE81915F01B6010E
:1012800090E00E946E0A21102A9421E0821A9108AF
:101290008114910471F7E8C0843611F0893641F564
:1012A000F80137FE07C060817181828193810C5FF4
:1012B0001F4F08C060817181072E000C880B990BAD
:1012C0000E5F1F4FF32DFF763F2E97FF09C09095BD
:1012D0008095709561957F4F8F4F9F4FF0683F2E9F
:1012E0002AE030E0A3010E94AA0A882E861845C091
:1012F000853731F4232D2F7EB22E2AE030E025C031
:10130000932D997FB92E8F36C1F018F4883579F076
:10131000B5C0803719F0883721F0B0C0E92FE061FF
:10132000BE2EB4FE0DC0FB2DF460BF2E09C034FEEE
:101330000AC0292F2660B22E06C028E030E005C082
:1013400020E130E002C020E132E0F801B7FE07C042
:1013500060817181828193810C5F1F4F06C0608123
:10136000718180E090E00E5F1F4FA3010E94AA0AE6
:10137000882E8618FB2DFF773F2E36FE0DC0232DBD
:101380002E7FA22E891458F434FE0BC032FC09C003
:10139000832D8E7EA82E05C0B82CA32C03C0B82C9C
:1013A00001C0B92CA4FE0FC0FE01E80DF11D808123
:1013B000803321F49A2D997EA92E09C0A2FE06C081
:1013C000B394B39404C08A2D867809F0B394A3FC37
:1013D00011C0A0FE06C0B21488F4280C922C9B18F1
:1013E0000EC0B21460F4B60180E290E00E946E0A72
:1013F000B394F7CFB21418F42B1802C0982C212CF8
:10140000A4FE10C0B60180E390E00E946E0AA2FE26
:1014100017C0A1FC03C088E790E002C088E590E017
:10142000B6010CC08A2D867859F0A1FE02C08BE26D
:1014300001C080E2A7FC8DE2B60190E00E946E0A36
:10144000891438F4B60180E390E00E946E0A9A9401
:10145000F7CF8A94F301E80DF11D8081B60190E089
:101460000E946E0A8110F5CF222009F442CEB60107
:1014700080E290E00E946E0A2A94F6CFF6018681FF
:10148000978102C08FEF9FEF2B96E2E10C942C0B1B
:10149000FC010590615070400110D8F7809590953F
:1014A0008E0F9F1F0895FC01615070400190011044
:1014B000D8F7809590958E0F9F1F0895DC01FC0151
:1014C000672F71917723E1F7329704C07C916D9378
:1014D00070836291AE17BF07C8F308950F931F93EF
:1014E000CF93DF93FB01238121FD03C08FEF9FEF9B
:1014F0002CC022FF16C046815781248135814217B6
:10150000530744F4A081B1819D012F5F3F4F318388
:1015100020838C93268137812F5F3F4F378326832B
:1015200014C08B01EC01FB010084F185E02D0995CD
:10153000892BE1F6D80116968D919C91179701960B
:1015400017969C938E931697CE01DF91CF911F91A2
:101550000F910895FA01AA27283051F1203181F125
:10156000E8946F936E7F6E5F7F4F8F4F9F4FAF4FAB
:10157000B1E03ED0B4E03CD0670F781F891F9A1FBE
:10158000A11D680F791F8A1F911DA11D6A0F711D72
:10159000811D911DA11D20D009F468943F912AE07E
:1015A000269F11243019305D3193DEF6CF01089566
:1015B000462F4770405D4193B3E00FD0C9F7F6CF97
:1015C000462F4F70405D4A3318F0495D31FD40525F
:1015D000419302D0A9F7EACFB4E0A69597958795F5
:1015E00077956795BA95C9F70097610571050895D4
:1015F0009B01AC010A2E0694579547953795279580
:10160000BA95C9F7620F731F841F951FA01D089517
:10161000F999FECF92BD81BDF89A992780B50895BA
:101620002F923F924F925F926F927F928F929F92F2
:10163000AF92BF92CF92DF92EF92FF920F931F93E0
:10164000CF93DF93CDB7DEB7CA1BDB0B0FB6F89491
:10165000DEBF0FBECDBF09942A88398848885F84D1
:101660006E847D848C849B84AA84B984C884DF8042
:10167000EE80FD800C811B81AA81B981CE0FD11D26
:101680000FB6F894DEBF0FBECDBFED010895F894FC
:02169000FFCF8A
:1016920000007902200000000001000000000000AC
:1016A200D90600000000000200000000C70600008A
:1016B2000000E7E7E7E7E7454D53206973207275BD
:1016C2006E6E696E672C206E6F206572726F727318
:1016D20020666F756E640D00416C657274206465DE
:1016E200746563746564200D0046756E6374696F7A
:1016F2006E206761746865724461746128293B20B9
:1017020063616C6C65640D0044617461737472652D
:10171200616D3A2025730D005265616C74696D65C7
:10172200206461746120656E61626C65640D0047BE
:1017320061732065786365656473206C696D697493
:101742002E20456E61626C696E67207265616C74F1
:10175200696D6520646174612E0D004D657373615E
:1017620067653A2025730D004572726F723A2073D5
:101772007472696E6720746F6F206C6F6E670045BC
:1017820072726F723A20737472696E6720746F6F2F
:10179200206C6F6E670D004572726F723A206D6930
:1017A2007373696E6720646174610D005472616EB7
:1017B200736D697474696E6720646174613A20257F
:1017C200730D0044617461207265636569766564B6
:0217D2000D0008
:00000001FF
