S00B0000454D532E7372656334
S11300000C943E000C945B000C945B000C945B001D
S11300100C945B000C945B000C945B000C945B00F0
S11300200C945B000C945B000C945B000C94E10258
S11300300C945B000C945B000C945B000C945B00D0
S11300400C945B000C945B000C945B000C945B00C0
S11300500C945B000C945B000C945B000C945B00B0
S11300600C945B000C945B00B600CA00F3001C0106
S113007045016E019701B601C901F20111241FBEA9
S1130080CFEFD8E0DEBFCDBF12E0A0E0B1E0E2E602
S1130090F5E202C005900D92A637B107D9F723E027
S11300A0A6E7B2E001C01D92AF31B207E1F70E94AA
S11300B0A7000C94AF120C9400002FEF84E39CE093
S11300C0215080409040E1F700C0000087E291E0B9
S11300D09F938F930E94B90F88E491E00E94A50A30
S11300E08AB18C618AB980E090E00E945605399A01
S11300F03A9A82E0809380002CE930E030938B00C0
S113010020938A0080936F0081E08093810080E4D3
S113011080937C0087E880937A0078948FE19EE452
S11301200197F1F700C000000F900F9080917602C4
S113013090917702019741F487E691E09F938F9322
S11301400E94B90F0F900F900E94EF0808950E942B
S1130150340C0E945D00FFCFFA013197EA30F105BB
S113016008F052C1EC5CFF4F0C943B0E409744F4F2
S1130170E6EDF2E080E38083DB018C9181830895D6
S1130180E6EDF2E0DB0111968C91119780838C915E
S113019081830895803191054CF4E6EDF2E080E32B
S11301A082838383DB018C91848308954097803F0D
S11301B0910560F4E6EDF2E080E38283DB011196C1
S11301C08C91119783838C9184830895FB018281A0
S11301D0E6EDF2E08283DB0111968C911197838323
S11301E08C9184830895803191054CF4E6EDF2E01E
S11301F080E385838683DB018C9187830895409710
S1130200803F910560F4E6EDF2E080E38583DB0155
S113021011968C91119786838C9187830895FB01A5
S11302208281E6EDF2E08583DB0111968C911197D2
S113023086838C9187830895803191054CF4E6ED93
S1130240F2E080E380878187DB018C9182870895C7
S11302504097803F910560F4E6EDF2E080E380870B
S1130260DB0111968C91119781878C918287089577
S1130270FB018281E6EDF2E08087DB0111968C912F
S1130280119781878C9182870895803191054CF470
S1130290E6EDF2E080E383878487DB018C91858738
S11302A008954097803F910560F4E6EDF2E080E325
S11302B08387DB0111968C91119784878C918587B4
S11302C00895FB018281E6EDF2E08387DB0111965C
S11302D08C91119784878C9185870895803191053D
S11302E04CF4E6EDF2E080E386878787DB018C91AE
S11302F0808B08954097803F910560F4E6EDF2E02D
S113030080E38687DB0111968C91119787878C9106
S1130310808B0895FB018281E6EDF2E08687DB01A4
S113032011968C91119787878C91808B08959923CE
S11303303CF42DE22093E70291958195910903C045
S11303402BE22093E702409744F4E6EDF2E080E3E9
S1130350828BDB018C91838B0895FB018181E6ED17
S1130360F2E0828BDB018C91838B0895409744F4F7
S1130370E6EDF2E080E3848BDB018C91858B0895BC
S1130380FB018181E6EDF2E0848BDB018C91858BAE
S11303900895803191054CF4E6EDF2E080E3868B1C
S11303A0878BDB018C91808F08954097803F910566
S11303B060F4E6EDF2E080E3868BDB0111968C912C
S11303C01197878B8C91808F0895FB018281E6EDD4
S11303D0F2E0868BDB0111968C911197878B8C91BF
S11303E0808F0895409744F4E6EDF2E080E3818F36
S11303F0DB018C91828F0895FB018181E6EDF2E0AF
S1130400818FDB018C91828F0895CF92DF92EF92DE
S1130410FF920F931F93CF93DF9300D0CDB7DEB736
S113042088E791E09F938F930E94B90F19821A82F3
S11304308AE290E00E947012082F10E0C8010E9426
S1130440590B41E050E06EE073E0C8010E94AC003B
S11304500E947F0A8C010E94590B42E050E06EE03A
S113046073E0C8010E94AC0087E393E00E94590B3B
S113047043E050E06EE073E087E393E00E94AC0059
S113048080E293E00E94590B44E050E06EE073E098
S113049080E293E00E94AC000E944C0A0E94B90CD6
S11304A06B017C01CB010E94590B45E050E06EE0EA
S11304B073E0C6010E94AC000E942A0A8C010E94CB
S11304C0590B46E050E06EE073E0C8010E94AC00B6
S11304D00E94C4080E94B90C6B017C01CB010E94EC
S11304E0590B47E050E06EE073E0C6010E94AC0097
S11304F0BE016E5F7F4FCE0101960E94A0098A81E2
S1130500082E000C990B0E94590B8A8148E050E098
S11305106EE073E0082E000C990B0E94AC000E9460
S1130520E40824E630E040E050E00E941C0E69013B
S11305307A01C9010E94590B49E050E06EE073E072
S1130540C6010E94AC000E94EC0B8C010E94590B66
S11305504AE050E06EE073E0C8010E94AC000E94E3
S1130560DF0B86ED92E09F938F9387E991E09F9351
S11305708F930E94B90F0F900F900F900F900F90D0
S11305800F900F900F90DF91CF911F910F91FF90DB
S1130590EF90DF90CF90089581E090E09093770200
S11305A08093760287EA91E09F938F930E94B90F1C
S11305B00E94050286ED92E00E94A50A0F900F901A
S11305C008951F920F920FB60F9211242F933F9309
S11305D04F935F936F937F938F939F93AF93BF9347
S11305E0EF93FF938091D0029091D102A091D20217
S11305F0B091D3020196A11DB11D8093D0029093B6
S1130600D102A093D202B093D3028091D0029091F0
S1130610D102A091D202B091D302813F9C43A105A3
S1130620B10598F11092D0021092D1021092D20228
S11306301092D3020E947F0A81399140CCF081E06C
S113064090E0909377028093760287E691E09F93FF
S11306508F930E94B90F8EEB91E09F938F930E942A
S1130660B90F0E94CC020F900F900F900F9004C00E
S1130670109277021092760280917802909179021A
S113068001969093790280937802809178029091F8
S11306907902039754F010927902109278020E9422
S11306A0050286ED92E00E94A50AFF91EF91BF91A9
S11306B0AF919F918F917F916F915F914F913F91F6
S11306C02F910F900FBE0F901F901895FC01A62F2D
S11306D0B72F9C012B5F3F4F91919D93E217F30736
S11306E0D9F7089580E190E00E94630E20E1FC01B7
S11306F011922A95E9F70895CF93DF93EC01DA017B
S1130700E881F981508181E090E00A8002C0880F7D
S1130710991F0A94E2F78095852380836EBD0DB4FA
S113072007FEFDCF8EB58F872115310579F0FD01C8
S11307302A0F3B1FDF0190819EBD0DB407FEFDCF44
S11307409EB59C933196E217F307A1F7E881F981EE
S1130750208181E090E00A8002C0880F991F0A94EA
S1130760E2F7822B80838F85DF91CF9108956062B9
S11307700E947C0308950E947C03089520E030E0E9
S113078040E050E061EE0E947C030895CF93DF9334
S11307901F92CDB7DEB720E7298321E030E0AE0118
S11307A04F5F5F4F67E00E94B7030F90DF91CF91D7
S11307B00895FF920F931F93CF93DF931F92CDB7AA
S11307C0DEB78C01DC01ED91FC911197429181E03F
S11307D090E09C0112960C90129702C0220F331FD6
S11307E00A94E2F7242B20831396ED91FC9114973D
S11307F042919C0115960C90159702C0220F331F4D
S11308000A94E2F7242B2083ED91FC911197408107
S11308109C0112960C90129702C0220F331F0A9467
S1130820E2F7242B20831396ED91FC9114973081E9
S1130830AC0115960C90159702C0440F551F0A94ED
S1130840E2F7242F2095232320832CB520612CBD8F
S11308502CB520642CBD1696ED91FC91179742910E
S11308609C0118960C90189702C0220F331F0A940B
S1130870E2F7242B20831996ED91FC911A9742916B
S11308809C011B960C901B9702C0220F331F0A94E5
S1130890E2F7242B20831C96ED91FC911D97229165
S11308A01E960C9002C0880F991F0A94E2F7809557
S11308B0822380838CB5877F8CBD8CB58B7F8CBD68
S11308C08CB58E7F8CBD8CB58D7F8CBD8DB58160D4
S11308D08DBD8CB58F7D8CBD20E030E040E050E0D4
S11308E062EEC8010E947C0320E030E040E050E06A
S11308F061EEC8010E947C03C8010E94C6038FE018
S1130900898321E030E0AE014F5F5F4F60E0C801B2
S11309100E94B7030F2EFFE3FF2EF02DF98221E092
S113092030E0AE014F5F5F4F61E0C8010E94B70342
S1130930F98221E030E0AE014F5F5F4F6CE1C80106
S11309400E94B70384E0898321E030E0AE014F5F69
S11309505F4F6DE1C8010E94B703198221E030E0C6
S1130960AE014F5F5F4F62E0C8010E94B703198276
S113097021E030E0AE014F5F5F4F62E0C8010E94AA
S1130980B70380E4898321E030E0AE014F5F5F4F1D
S113099065E0C8010E94B7030F90DF91CF911F91CA
S11309A00F91FF900895CF93DF931F92CDB7DEB7D9
S11309B020E3298321E030E0AE014F5F5F4F67E021
S11309C00E94B7030F90DF91CF910895CF92DF92E9
S11309D0EF92FF920F931F93CF93DF9300D000D039
S11309E000D0CDB7DEB78C016B017A010E94D3042D
S11309F0BE016F5F7F4FC6010E94660325E030E0B1
S1130A00AE014F5F5F4F60E1C8010E94B703BE01B2
S1130A106F5F7F4FC6010E94660325E030E0AE01A0
S1130A204F5F5F4F6AE0C8010E94B703D7019296F7
S1130A302C9130E0A7014E5F5F4F60EAC8010E942D
S1130A407C0321E030E0AE014A5F5F4F60E0C80103
S1130A500E94BB038E818E7F8E8321E030E0AE0145
S1130A604A5F5F4F60E0C8010E94B703D801139644
S1130A70ED91FC911497208181E090E015960C9003
S1130A8002C0880F991F0A94E2F7822B808326966E
S1130A900FB6F894DEBF0FBECDBFDF91CF911F918B
S1130AA00F91FF90EF90DF90CF90089582309105E1
S1130AB0A9F02CF4009749F0019759F00895833078
S1130AC0910589F00497A1F008958BB1837E8BB9C9
S1130AD008955A9A8BB1877E8BB908955B9A8BB12E
S1130AE08B7E8BB908958BB18C608BB95C9808951B
S1130AF05C9A8BB1837F8BB90895CF93DF93D82F02
S1130B00C62F8EEE0E94CE098D2F0E94020A8C2FD2
S1130B100E94020A0E94F909DF91CF910895CF92B1
S1130B20DF92EF92FF920F931F93CF93DF93C82F1F
S1130B30F62ED72FE42E8EEE0E94CE098C2F0E9423
S1130B40020A8FEE0E94F609EE2009F10F2D1D2FE7
S1130B50CC24CA94CE0CD12C8FEFC81AD80AC0E08A
S1130B60D0E0F12CE1E0EE1AF108EC16FD0629F4D0
S1130B700E941F0AF801808304C00E94140AF8012D
S1130B80808321960F5F1F4FCC15DD0571F70E94FE
S1130B90F909DF91CF911F910F91FF90EF90DF90B2
S1130BA0CF900895CF92DF92EF92FF926B017C0178
S1130BB0AAE7B2E02EEC32E0FD0144815581668162
S1130BC077814193519361937193E217F307A9F7E6
S1130BD0C092CA02D092CB02E092CC02F092CD0233
S1130BE060E070E0CB01CD90DD90ED90FD906C0D58
S1130BF07D1D8E1D9F1DA217B307A9F725E130E0C7
S1130C0040E050E00E941C0ECA01B901FF90EF9031
S1130C10DF90CF900895CF93DF9300D0CDB7DEB7A8
S1130C201A82198242E0BE016F5F7F4F8AEA0E94F6
S1130C308F05898190E0982F88272A81822B9093B1
S1130C4007038093060342E0BE016F5F7F4F8CEA87
S1130C500E948F05898190E0982F88272A81822B12
S1130C60909314038093130342E0BE016F5F7F4FA0
S1130C708EEA0E948F05898190E0982F88272A8127
S1130C80822B9093FB028093FA0242E0BE016F5FD5
S1130C907F4F80EB0E948F05898190E0982F8827F1
S1130CA02A81822B9093CF028093CE0242E0BE0130
S1130CB06F5F7F4F82EB0E948F05898190E0982FB0
S1130CC088272A81822B90930B0380930A0342E0A6
S1130CD0BE016F5F7F4F84EB0E948F05898190E096
S1130CE0982F88272A81822B9093030380930203F1
S1130CF042E0BE016F5F7F4F86EB0E948F058981C2
S1130D0090E0982F88272A81822B90930103809367
S1130D10000342E0BE016F5F7F4F88EB0E948F05A6
S1130D20898190E0982F88272A81822B9093D5027D
S1130D308093D40242E0BE016F5F7F4F8AEB0E9432
S1130D408F05898190E0982F88272A81822B9093A0
S1130D5009038093080342E0BE016F5F7F4F8CEB71
S1130D600E948F05898190E0982F88272A81822B01
S1130D7090930D0380930C0342E0BE016F5F7F4F9D
S1130D808EEB0E948F05898190E0982F88272A8115
S1130D90822B90930503809304030F900F90DF91AF
S1130DA0CF910895CF92DF92EF92FF920F931F930A
S1130DB0CF93DF9300D0CDB7DEB71A8219826EE2EB
S1130DC084EF0E947D058FE097E20197F1F700C060
S1130DD0000042E0BE016F5F7F4F86EF0E948F05E7
S1130DE02981822F90E0A0E0B0E04427582F692F9A
S1130DF07A2F8A81482B80910203909103039A01F0
S1130E00AB01281B390B41095109A0910A03B09188
S1130E100B030E94410E6B017C010B2EBFE0F59485
S1130E20E794D794C794BA95D1F7B02D60910C0389
S1130E3070910D03CB01770FAA0BBB0BBC01CD0145
S1130E40052E5BE0660F771F881F991F5A95D1F70F
S1130E50502D20910403309105038901330F220B97
S1130E60330BA90198012C0D3D1D4E1D5F1D0E94E1
S1130E701C0EC20ED31EE41EF51EC092FC02D092BC
S1130E80FD02E092FE02F092FF020F900F90DF91BC
S1130E90CF911F910F91FF90EF90DF90CF90089525
S1130EA04F925F926F927F928F929F92AF92BF9276
S1130EB0CF92DF92EF92FF920F931F93CF93DF9322
S1130EC0CDB7DEB727970FB6F894DEBF0FBECDBF00
S1130ED08E010F5F1F4F83E0F80111928A95E9F7A5
S1130EE00E94D20664EF84EF0E947D058FE19BECA3
S1130EF00197F1F700C0000043E0B80186EF0E94BB
S1130F008F058090FC029090FD02A090FE02B090AC
S1130F10FF0290EA891A9FE0990AA108B108A50185
S1130F209401C501B4010E94EA0D2B013C01A0917A
S1130F300003B09101039B01AC01012E1CE0559507
S1130F404795379527951A95D1F7102D0E944C0E89
S1130F506C01FF24D7FCF094EF2CA091FA02B0911D
S1130F60FB02A50194010E944C0EDC01CB01072E6B
S1130F707DE0B595A795979587957A95D1F7702DCE
S1130F808C0D9D1DAE1DBF1D0296A11DB11DB595F5
S1130F90A79597958795B595A795979587959C015E
S1130FA0AD0130584F4F5F4FA091CE02B091CF02A8
S1130FB00E94410E9B01AC01012E1FE056954795FE
S1130FC0379527951A95D1F7102D2C833D834E83A1
S1130FD05F838981CA80D12CE12CF12CFE2CED2C6D
S1130FE0DC2CCC24E82A8B81C82A689414F8F59464
S1130FF0E794D794C7941694D1F7A091D402B091F2
S1131000D502A30192010E944C0E2B013C01032E38
S113101037E175946794579447943A95D1F7302DF6
S1131020A0911303B0911403A50194010E944C0EE6
S1131030DC01CB01072E7BE0B595A79597958795A5
S11310407A95D1F7702D840D951DA61DB71D40917D
S1131050060350910703052E000C660B770B440F13
S1131060551F661F771F440F551F661F771F840F78
S1131070951FA61FB71F880F991FAA1FBB1FA70183
S11310809601281B390B4A0B5B0BAAE6B8E10E94B8
S1131090410E99236CF0660F771F881F991F2C81CE
S11310A03D814E815F810E94FA0D49015A010CC0B5
S11310B02C813D814E815F810E94FA0D49015A01C4
S11310C0880C991CAA1CBB1C9927B7FC9A958B2DDC
S11310D07A2D692D9B01AC010E94EA0D9B01AC01A4
S11310E0AEEDBBE00E94410E6B017C01A3E4B3EEC4
S11310F0A50194010E944F0EBB2797FDB095AB2F1D
S11311006701FF24D7FCF094EF2C8C0D9D1DAE1DC0
S1131110BF1D8153914FAF4FBF4F689413F8B595DE
S1131120A795979587951694D1F7BC01CD01680DC5
S1131130791D8A1D9B1D6093F6027093F7028093BC
S1131140F8029093F9020E94D2056093F60270931C
S1131150F7028093F8029093F90227960FB6F89459
S1131160DEBF0FBECDBFDF91CF911F910F91FF90D6
S1131170EF90DF90CF90BF90AF909F908F907F9033
S11311806F905F904F9008950E94D2068091FC0268
S11311909091FD02A091FE02B091FF020896A11D5C
S11311A0B11DBC01CD01689413F895958795779589
S11311B067951694D1F70E94F10C20E030E040E2EC
S11311C051E40E94470C08950E9450076091F60272
S11311D07091F7028091F8029091F9020895CF93EB
S11311E00E94A3098AE18A95F1F700C00E940B06C8
S11311F00E94D206C5E10E945007C150E1F7CF9189
S11312000895CF92DF92EF92FF920F931F93CF93A3
S1131210DF9300D000D01F92CDB7DEB76C01DE01A2
S1131220119695E0FD0111929A95E9F7209A289A72
S1131230FFEF20E782E0F15020408040E1F700C05A
S113124000002898AFE9BCE81197F1F700C000004E
S1131250289A2098BAE6BA95F1F700C0189959C0AF
S1131260E5EDEA95F1F70000189B55C0F5EDFA9508
S1131270F1F700008E010F5F1F4F7E0126E0E20EA2
S1131280F11CE1E0F0E026C02150310919F445C019
S113129029EC30E0189BF8CF80E58A95F1F7189B8C
S11312A008C09F01042E02C0220F331F0A94E2F7E4
S11312B0922B29EC30E003C02150310981F11899B7
S11312C0FBCF4150510920F7D8019D938D01EA16B7
S11312D0FB0621F047E050E090E0DACF209A289A0C
S11312E0BFEFE0E7F2E0B150E040F040E1F700C0CA
S11312F0000029813B818A81820F830F9C81890FA1
S11313009D8189130EC0D6013C93FB01208380E0AC
S113131009C08FEF07C08FEF05C08FEF03C08FEFB9
S113132001C08FEF0F900F900F900F900F90DF91EF
S1131330CF911F910F91FF90EF90DF90CF90089580
S11313400E940109089580E28093B800089594EA08
S11313509093BC00ECEBF0E090819923ECF7909132
S1131360B900987F983011F09031A1F48093BB00BC
S113137084E88093BC00ECEBF0E080818823ECF7F8
S11313809091B900987F983139F081E0903429F434
S113139080E0089581E0089580E00895CF93DF937D
S11313A0ECEBF0E024EAA9EBB0E0CBEBD0E034E8DE
S11313B044E9208390819923ECF79C91987F98309D
S11313C011F09031B1F78883308390819923ECF741
S11313D09C91987F903211F0983529F44083908144
S11313E094FDFDCFE6CFDF91CF9108950E94A70928
S11313F0089584E98093BC00ECEBF0E0808184FDE7
S1131400FDCF08958093BB0084E88093BC00ECEB8F
S1131410F0E080818823ECF79091B900987F81E017
S1131420983209F480E0089584EC8093BC00ECEBDE
S1131430F0E080818823ECF78091BB00089584E874
S11314408093BC00ECEBF0E080818823ECF7809182
S1131450BB00089584E090E00E94560580E00E945D
S1131460320A0895ECE7F0E09081907F90839081B8
S1131470892B8083EAE7F0E0808180648083808127
S113148084FFFDCFEAE7F0E0808180618083809172
S11314907800909179000895CF92DF92EF92FF92B5
S11314A0CF93DF933998429A81E00E94320AEC018B
S11314B04298399ABC01990F880B990B0E94F10C40
S11314C02AE037ED43EC51E40E947D0D6B017C0171
S11314D06FEF73E06C1B7D0B072E000C880B990BD0
S11314E00E94F10C9B01AC01C701B6010E94470C9C
S11314F0DF91CF91FF90EF90DF90CF90089583E03C
S11315000E94320A0895CF93DF930E947203EC0184
S113151085E290E09983888322E02A839C838B83ED
S113152021E02D839F838E8325E028879A878987EE
S113153023E02B879D878C8784E08E87CE010E94D1
S1131540D903CE01DF91CF910895AF92BF92CF928C
S1131550DF92EF92FF920F931F93CF93DF93CDB758
S1131560DEB7C654D1090FB6F894DEBF0FBECDBFA7
S1131570BC018E010F5F1F4FC8010E948D0FF8013F
S113158001900020E9F73197CF01801B910B8C016A
S11315908F31910514F18E010F5F1F4F8EE1F80119
S11315A011928A95E9F787E1E7EFF1E0D80101901C
S11315B00D928A95E1F78EE092E09F938F930E94BB
S11315C0B90FF80101900020E9F73197CF01801B92
S11315D0910B8C010F900F9023C04C970CF58E014A
S11315E00F5F1F4F8EE1F80111928A95E9F784E1AC
S11315F0E6E2F2E0D80101900D928A95E1F78AE3E0
S113160092E09F938F930E94B90FF80101900020FC
S1131610E9F73197CF01801B910B8C010F900F904C
S1131620FE0131965F01FF93EF938FE492E09F9365
S11316308F930E94B90F85E0E2E2F1E0DE015F964C
S113164001900D928A95E1F70E94830A6C010E9431
S1131650BE037E01F6E2EF0EF11CA801B501C7013D
S11316600E94840FF70101900020E9F7EE192796F4
S1131670EFAF2797AE014C5D5F4FBE01615E7F4FB8
S1131680C6010E94E6040F900F900F900F90CA5B62
S1131690DF4F0FB6F894DEBF0FBECDBFDF91CF9101
S11316A01F910F91FF90EF90DF90CF90BF90AF907C
S11316B00895803191050CF044C08A30910534F4CA
S11316C04AE06EE073E00E94940F08958C30910517
S11316D0E1F034F48A30910551F00B9779F00895D4
S11316E08E30910501F1C4F00F9721F1089581E442
S11316F090E090930F0380930E03089582E490E0AA
S113170090930F0380930E03089583E490E09093E5
S11317100F0380930E03089584E490E090930F03E5
S113172080930E03089585E490E090930F038093D3
S11317300E03089586E490E090930F0380930E03C4
S11317400895092E000CAA0BBB0B0097A105B10547
S1131750A9F1EEE0F3E0AC01BD014F705527662717
S11317607078772364F44150510961097109406F1D
S11317705F6F6F6F7F6F4F5F5F4F6F4F7F4F4A3069
S113178051051CF4405D5F4F02C0495C5F4F4193BB
S1131790AC01BD01BB2324F4415F5F4F6F4F7F4F0A
S11317A0DB01CA01689413F8B595A79597958795B9
S11317B01694D1F70097A105B10569F6089581E063
S11317C090E00E94560580E00E94320AE6EDF2E0C5
S11317D08EE4838F148E08950F931F93CF93DF931A
S11317E080E090E00E94560500E010E0C0E0D0E008
S11317F013C00F5F1F4F21968FEC97E00197F1F70D
S113180000C00000CE010D2E000CAA0BBB0B8031D2
S11318109742A105B10538F480E00E94320A813272
S113182093403CF7E8CFC801DF91CF911F910F910E
S11318300895CF93C82F8A3019F48DE00E94190CB3
S1131840E0ECF0E0808185FFFDCFC093C60080E02E
S113185090E0CF910895E0ECF0E080818823ECF7EC
S11318608091C60090E008951092C50083E38093B0
S1131870C40088E18093C100E9E1F3E084E191E0F0
S11318809383828386E091E09183808308950E940C
S11318905B0C0C94430D0E943C0D58F00E94350DD6
S11318A040F029F45F3F29F00C942C0D51110C9455
S11318B0770D0C94320D0E94540D68F39923B1F303
S11318C0552391F3951B550BBB27AA276217730762
S11318D0840738F09F5F5F4F220F331F441FAA1FF6
S11318E0A9F335D00E2E3AF0E0E832D091505040B2
S11318F0E695001CCAF72BD0FE2F29D0660F771F60
S1131900881FBB1F261737074807AB07B0E809F045
S1131910BB0B802DBF01FF2793585F4F3AF09E3FCA
S1131920510578F00C942C0D0C94770D5F3FE4F383
S1131930983ED4F3869577956795B795F7959F5F0D
S1131940C9F7880F911D9695879597F90895E1E059
S1131950660F771F881FBB1F621773078407BA07B8
S113196020F0621B730B840BBA0BEE1F88F7E09513
S113197008950E94C00C6894B1110C94770D0895D9
S11319800E945C0D88F09F5798F0B92F9927B751A2
S1131990B0F0E1F0660F771F881F991F1AF0BA950F
S11319A0C9F714C0B13091F00E94760DB1E00895EA
S11319B00C94760D672F782F8827B85F39F0B93FDC
S11319C0CCF3869577956795B395D9F73EF49095C2
S11319D08095709561957F4F8F4F9F4F0895E89440
S11319E009C097FB3EF490958095709561957F4F63
S11319F08F4F9F4F9923A9F0F92F96E9BB27939511
S1131A00F695879577956795B795F111F8CFFAF420
S1131A10BB0F11F460FF1BC06F5F7F4F8F4F9F4F51
S1131A2016C0882311F096E911C0772321F09EE8AF
S1131A30872F762F05C0662371F096E8862F70E015
S1131A4060E02AF09A95660F771F881FDAF7880FEF
S1131A509695879597F9089597F99F6780E870E0C0
S1131A6060E008959FEF80EC089500240A94161610
S1131A70170618060906089500240A941216130678
S1131A80140605060895092E0394000C11F4882306
S1131A9052F0BB0F40F4BF2B11F460FF04C06F5F22
S1131AA07F4F8F4F9F4F089557FD9058440F551FF8
S1131AB059F05F3F71F04795880F97FB991F61F0CC
S1131AC09F3F79F087950895121613061406551F43
S1131AD0F2CF4695F1DF08C0161617061806991FAF
S1131AE0F1CF86957105610508940895E894BB27A4
S1131AF066277727CB0197F908950E94900D0C94DF
S1131B00430D0E94350D38F00E943C0D20F09523C2
S1131B1011F00C942C0D0C94320D11240C94770DAF
S1131B200E94540D70F3959FC1F3950F50E0551F1B
S1131B30629FF001729FBB27F00DB11D639FAA271E
S1131B40F00DB11DAA1F649F6627B00DA11D661F6D
S1131B50829F2227B00DA11D621F739FB00DA11D8E
S1131B60621F839FA00D611D221F749F3327A00D48
S1131B70611D231F849F600D211D822F762F6A2FE4
S1131B8011249F5750409AF0F1F088234AF0EE0F49
S1131B90FF1FBB1F661F771F881F91505040A9F776
S1131BA09E3F510580F00C942C0D0C94770D5F3FF3
S1131BB0E4F3983ED4F3869577956795B795F795B2
S1131BC0E7959F5FC1F7FE2B880F911D969587952A
S1131BD097F90895DB018F939F930E94410EBF9163
S1131BE0AF91A29F800D911DA39F900DB29F900D68
S1131BF011240895A1E21A2EAA1BBB1BFD010DC0DE
S1131C00AA1FBB1FEE1FFF1FA217B307E407F507A8
S1131C1020F0A21BB30BE40BF50B661F771F881F84
S1131C20991F1A9469F760957095809590959B011A
S1131C30AC01BD01CF010895052E97FB1EF400945D
S1131C400E94330E57FD07D00E94FA0D07FC03D003
S1131C504EF40C94330E50954095309521953F4F9A
S1131C604F4F5F4F089590958095709561957F4F84
S1131C708F4F9F4F0895EE0FFF1F0590F491E02DB5
S1131C8009940E94540EA59F900DB49F900DA49F9B
S1131C90800D911D11240895B7FF0C94410E0E94EC
S1131CA0410E821B930B0895A29FB001B39FC00104
S1131CB0A39F700D811D1124911DB29F700D811D74
S1131CC01124911D08950F931F93CF93DF938230B6
S1131CD0910510F482E090E0E0911703F09118036D
S1131CE020E030E0A0E0B0E0309719F1408151816C
S1131CF00281138148175907C8F08417950769F4BE
S1131D00109731F012960C93129713961C9327C0D8
S1131D10009317031093180322C02115310519F0FD
S1131D204217530718F49A01BD01EF01DF01F801CE
S1131D30DBCF21153105F9F0281B390B243031058F
S1131D4080F48A819B816115710521F0FB019383E5
S1131D50828304C09093180380931703FE01329684
S1131D6044C0FE01E20FF31F819391932250310985
S1131D70398328833AC02091150330911603232B0D
S1131D8041F4209102013091030130931603209312
S1131D90150320910001309101012115310541F411
S1131DA02DB73EB74091040150910501241B350B1A
S1131DB0E0911503F0911603E217F307A0F42E1B2C
S1131DC03F0B2817390778F0AC014E5F5F4F24179B
S1131DD0350748F04E0F5F1F5093160340931503C9
S1131DE08193919302C0E0E0F0E0CF01DF91CF91C5
S1131DF01F910F910895CF93DF93009709F481C049
S1131E00FC01329713821282A0911703B091180338
S1131E10109781F420813181820F931F2091150343
S1131E20309116032817390751F5F0931603E09300
S1131E30150367C0ED0120E030E0CE17DF0740F462
S1131E404A815B819E0141155105F1F0EA01F5CF0C
S1131E50D383C28340815181840F951FC817D9074A
S1131E6059F488819981840F951F02969183808308
S1131E708A819B81938382832115310529F4F09310
S1131E801803E09317033DC0E901FB83EA834991FA
S1131E905991C40FD51FEC17FD0761F4808191811E
S1131EA0840F951F0296E901998388838281938127
S1131EB09B838A83E0E0F0E012968D919C911397C6
S1131EC0009719F0FD01DC01F7CF8D919C911197DA
S1131ED09D012E5F3F4F820F931F20911503309178
S1131EE016032817390769F4309729F41092180358
S1131EF01092170302C013821282B0931603A093A8
S1131F001503DF91CF910895FB01DC0102C001901C
S1131F100D9241505040D8F70895FB01DC01019027
S1131F200D920020E1F70895BB274A3031F499233C
S1131F3022F4BDE2909581959F4F0C94A00FBB278E
S1131F40FB015527AA27880F991FAA1FA41710F071
S1131F50A41B83955051B9F7A05DAA3308F0A95D7D
S1131F60A193009779F7B111B1931192CB010C941D
S1131F70C611A0E0B0E0EFEBFFE00C948812AE01D4
S1131F804B5F5F4FFA0161917191AF0180911B0327
S1131F9090911C030E94CF0FE2E00C94A412ABE0DA
S1131FA0B0E0E5EDFFE00C9478126C017B018A014E
S1131FB0FC0117821682838181FFCCC1CE01019678
S1131FC03C01F6019381F70193FD859193FF819183
S1131FD07F01882309F4BAC1853239F493FD8591D0
S1131FE093FF81917F01853229F4B60190E00E942C
S1131FF0D611E7CF912C212C312CFFE1F315D8F029
S11320008B3279F038F4803279F08332A1F4232DC5
S113201020611DC08D3261F0803369F4232D21606D
S113202016C0832D8260382EE32DE4603E2E2AC034
S1132030F32DF8601DC037FC2DC020ED280F2A3089
S113204040F08E32B9F436FC81C1232D2064322E47
S113205019C036FE06C08AE0989E200D1124922EE7
S113206011C0EAE02E9E200D1124222EF32DF062E1
S11320703F2E08C08C3621F4832D8068382E02C090
S1132080883641F4F70193FD859193FF81917F0197
S11320908111B3CF982F9F7D9554933028F40C5F12
S11320A01F4F9FE399830DC0833631F0833771F05E
S11320B0833509F059C021C0F801808189830E5FFE
S11320C01F4F88248394912C530113C02801F2E0FC
S11320D04F0E511CF801A080B18036FE03C0692D5B
S11320E070E002C06FEF7FEFC5010E94BB114C018D
S11320F08201F32DFF773F2E16C0280122E0420E05
S1132100511CF801A080B18036FE03C0692D70E037
S113211002C06FEF7FEFC5010E94B0114C01F32D97
S1132120F0683F2E820133FC1BC0822D90E088169C
S11321309906B0F4B60180E290E00E94D6112A9488
S1132140F4CFF50137FC859137FE81915F01B6012B
S113215090E00E94D61121102A9421E0821A91085D
S11321608114910471F7E8C0843611F0893641F581
S1132170F80137FE07C060817181828193810C5F11
S11321801F4F08C060817181072E000C880B990BCA
S11321900E5F1F4FF32DFF763F2E97FF09C09095DA
S11321A08095709561957F4F8F4F9F4FF0683F2EBC
S11321B02AE030E0A3010E941212882E861845C03E
S11321C0853731F4232D2F7EB22E2AE030E025C04E
S11321D0932D997FB92E8F36C1F018F4883579F094
S11321E0B5C0803719F0883721F0B0C0E92FE0611D
S11321F0BE2EB4FE0DC0FB2DF460BF2E09C034FE0C
S11322000AC0292F2660B22E06C028E030E005C09F
S113221020E130E002C020E132E0F801B7FE07C05F
S113222060817181828193810C5F1F4F06C0608140
S1132230718180E090E00E5F1F4FA3010E94121293
S1132240882E8618FB2DFF773F2E36FE0DC0232DDA
S11322502E7FA22E891458F434FE0BC032FC09C020
S1132260832D8E7EA82E05C0B82CA32C03C0B82CB9
S113227001C0B92CA4FE0FC0FE01E80DF11D808140
S1132280803321F49A2D997EA92E09C0A2FE06C09E
S1132290B394B39404C08A2D867809F0B394A3FC54
S11322A011C0A0FE06C0B21488F4280C922C9B180E
S11322B00EC0B21460F4B60180E290E00E94D61120
S11322C0B394F7CFB21418F42B1802C0982C212C15
S11322D0A4FE10C0B60180E390E00E94D611A2FED5
S11322E017C0A1FC03C088E790E002C088E590E035
S11322F0B6010CC08A2D867859F0A1FE02C08BE28B
S113230001C080E2A7FC8DE2B60190E00E94D611E4
S1132310891438F4B60180E390E00E94D6119A94AF
S1132320F7CF8A94F301E80DF11D8081B60190E0A6
S11323300E94D6118110F5CF222009F442CEB601B5
S113234080E290E00E94D6112A94F6CFF6018681AD
S1132350978102C08FEF9FEF2B96E2E10C949412C9
S1132360FC010590615070400110D8F7809590955C
S11323708E0F9F1F0895FC01615070400190011061
S1132380D8F7809590958E0F9F1F0895DC01FC016E
S1132390672F71917723E1F7329704C07C916D9395
S11323A070836291AE17BF07C8F308950F931F930C
S11323B0CF93DF93FB01238121FD03C08FEF9FEFB8
S11323C02CC022FF16C046815781248135814217D3
S11323D0530744F4A081B1819D012F5F3F4F3183A6
S11323E020838C93268137812F5F3F4F3783268349
S11323F014C08B01EC01FB010084F185E02D0995EB
S1132400892BE1F6D80116968D919C911797019628
S113241017969C938E931697CE01DF91CF911F91BF
S11324200F910895FA01AA27283051F1203181F142
S1132430E8946F936E7F6E5F7F4F8F4F9F4FAF4FC8
S1132440B1E03ED0B4E03CD0670F781F891F9A1FDB
S1132450A11D680F791F8A1F911DA11D6A0F711D8F
S1132460811D911DA11D20D009F468943F912AE09B
S1132470269F11243019305D3193DEF6CF01089583
S1132480462F4770405D4193B3E00FD0C9F7F6CFB4
S1132490462F4F70405D4A3318F0495D31FD40527C
S11324A0419302D0A9F7EACFB4E0A6959795879512
S11324B077956795BA95C9F70097610571050895F1
S11324C09B01AC010A2E069457954795379527959D
S11324D0BA95C9F7620F731F841F951FA01D089535
S11324E0F999FECF92BD81BDF89A992780B50895D8
S11324F02F923F924F925F926F927F928F929F9210
S1132500AF92BF92CF92DF92EF92FF920F931F93FD
S1132510CF93DF93CDB7DEB7CA1BDB0B0FB6F894AE
S1132520DEBF0FBECDBF09942A88398848885F84EE
S11325306E847D848C849B84AA84B984C884DF805F
S1132540EE80FD800C811B81AA81B981CE0FD11D43
S11325500FB6F894DEBF0FBECDBFED010895F89419
S1052560FFCFA7
S113256200001F0320000000000100000000000022
S11325722B0C00000000000200000000190C0000F7
S11325820000E7E7E7E7E7454D53206973207275DA
S11325926E6E696E672C206E6F206572726F727335
S11325A220666F756E640D00454D53206973207269
S11325B2756E6E696E67202323232323232323232B
S11325C223232323232300416C65727420646574DE
S11325D26563746564200D0046756E6374696F6E7D
S11325E2206761746865724461746128293B2063C1
S11325F2616C6C65640D004461746173747265612D
S11326026D3A2025730D005265616C74696D652005
S11326126461746120656E61626C65640D0047617A
S1132622732065786365656473206C696D69742EC3
S113263220456E61626C696E67207265616C7469B3
S11326426D6520646174612E0D004D65737361675D
S1132652653A2025730D004572726F723A207374C5
S113266272696E6720746F6F206C6F6E67004572BB
S1132672726F723A20737472696E6720746F6F207E
S11326826C6F6E670D004572726F723A206D6973DA
S113269273696E672064617461004572726F723A85
S11326A2206D697373696E6720646174610D0054EF
S11326B272616E736D697474696E672064617461AA
S11326C23A2025730D004461746120726563656963
S10926D27665640D0000B2
S9030000FC
