S00B0000454D532E7372656334
S11300000C9434000C9451000C9451000C94510045
S11300100C9451000C9451000C9451000C94510018
S11300200C9451000C9451000C9451000C94F80061
S11300300C9451000C9451000C9451000C945100F8
S11300400C9451000C9451000C9451000C945100E8
S11300500C9451000C9451000C9451000C945100D8
S11300600C9451000C94510011241FBECFEFD8E022
S1130070DEBFCDBF11E0A0E0B1E0E2E8FAE102C0EA
S113008005900D92AE33B107D9F721E0AEE3B1E0AC
S113009001C01D92A539B207E1F70E94DD000C945E
S11300A03F0D0C9400008AB188638AB980E090E027
S11300B00E942203389A399A82E0809380002CE9C6
S11300C030E030938B0020938A0080936F0081E0AE
S11300D08093810080E480937C0087E880937A0099
S11300E078942FEF87EA91E6215080409040E1F721
S11300F000C0000008950F931F93CF93DF93CDB7F3
S1130100DEB72C970FB6F894DEBF0FBECDBF8AE2E0
S113011090E00E94370D082F10E0C8010E94B20839
S11301200F3011053CF4E7E6F1E01082809186017E
S1130130818309C0E7E6F1E0A6E8B1E08C91808311
S113014011968C9181830E9418080E94B2080E9423
S113015049030E94B2080E9449030E94B2080E9407
S1130160E5070E944C0ACB010E94B2080E94C30713
S11301700E94B208AE01475F5F4FBE016B5F7F4FC5
S1130180CE0101960E94E90389819A810E94B208F6
S113019089859A850E94B2088D819E810E94B20849
S11301A00E9441092C960FB6F894DEBF0FBECDBF56
S11301B0DF91CF911F910F9108950E94C7090E946A
S11301C05300809184019091850181309105E9F774
S11301D010928501109284010E941808893592407A
S11301E084F30E947B0087E691E00E943E08E9CFF9
S11301F01F920F920FB60F9211242F938F939F93F8
S1130200AF93BF938091630190916401A0916501C4
S1130210B09166010196A11DB11D80936301909375
S11302206401A0936501B09366018091630190918C
S11302306401A0916501B0916601813F9C43A105D1
S1130240B10530F081E090E09093850180938401C2
S1130250BF91AF919F918F912F910F900FBE0F90EF
S11302601F901895FC01A62FB72F9C012B5F3F4FC1
S113027091919D93E217F307D9F7089580E190E0F7
S11302800E94D10B20E1FC0111922A95E9F708950F
S1130290CF93DF93EC01DA01E881F981508181E0A9
S11302A090E00A8002C0880F991F0A94E2F78095B3
S11302B0852380836EBD0DB407FEFDCF8EB58F8779
S11302C02115310579F0FD012A0F3B1FDF019081D3
S11302D09EBD0DB407FEFDCF9EB59C933196E217EB
S11302E0F307A1F7E881F981208181E090E00A8099
S11302F002C0880F991F0A94E2F7822B80838F85AE
S1130300DF91CF91089560620E94480108950E9490
S11303104801089520E030E040E050E061EE0E94A2
S113032048010895CF93DF931F92CDB7DEB720E73E
S1130330298321E030E0AE014F5F5F4F67E00E9408
S113034083010F90DF91CF910895FF920F931F9334
S1130350CF93DF931F92CDB7DEB78C01DC01ED9113
S1130360FC911197429181E090E09C0112960C90CF
S1130370129702C0220F331F0A94E2F7242B208322
S11303801396ED91FC91149742919C0115960C9053
S1130390159702C0220F331F0A94E2F7242B2083FF
S11303A0ED91FC91119740819C0112960C9012974B
S11303B002C0220F331F0A94E2F7242B20831396E2
S11303C0ED91FC9114973081AC0115960C90159722
S11303D002C0440F551F0A94E2F7242F20952323CB
S11303E020832CB520612CBD2CB520642CBD169621
S11303F0ED91FC91179742919C0118960C901897D7
S113040002C0220F331F0A94E2F7242B208319968B
S1130410ED91FC911A9742919C011B960C901B97AD
S113042002C0220F331F0A94E2F7242B20831C9668
S1130430ED91FC911D9722911E960C9002C0880F9D
S1130440991F0A94E2F78095822380838CB5877F75
S11304508CBD8CB58B7F8CBD8CB58E7F8CBD8CB5E3
S11304608D7F8CBD8DB581608DBD8CB58F7D8CBD30
S113047020E030E040E050E062EEC8010E94480114
S113048020E030E040E050E061EEC8010E94480105
S1130490C8010E9492018FE0898321E030E0AE011F
S11304A04F5F5F4F60E0C8010E9483010F2EFFE39E
S11304B0FF2EF02DF98221E030E0AE014F5F5F4F57
S11304C061E0C8010E948301F98221E030E0AE01BD
S11304D04F5F5F4F6CE1C8010E94830184E0898310
S11304E021E030E0AE014F5F5F4F6DE1C8010E9433
S11304F08301198221E030E0AE014F5F5F4F62E07B
S1130500C8010E948301198221E030E0AE014F5FEF
S11305105F4F62E0C8010E94830180E4898321E087
S113052030E0AE014F5F5F4F65E0C8010E94830178
S11305300F90DF91CF911F910F91FF900895CF936A
S1130540DF931F92CDB7DEB720E3298321E030E0AB
S1130550AE014F5F5F4F67E00E9483010F90DF9110
S1130560CF910895CF92DF92EF92FF920F931F9352
S1130570CF93DF9300D000D000D0CDB7DEB78C018D
S11305806B017A010E949F02BE016F5F7F4FC6011B
S11305900E94320125E030E0AE014F5F5F4F60E121
S11305A0C8010E948301BE016F5F7F4FC6010E9494
S11305B0320125E030E0AE014F5F5F4F6AE0C801D1
S11305C00E948301D70192962C9130E0A7014E5FDF
S11305D05F4F60EAC8010E94480121E030E0AE01AB
S11305E04A5F5F4F60E0C8010E9487018E818E7F61
S11305F08E8321E030E0AE014A5F5F4F60E0C801C6
S11306000E948301D8011396ED91FC9114972081E7
S113061081E090E015960C9002C0880F991F0A940F
S1130620E2F7822B808326960FB6F894DEBF0FBEC6
S1130630CDBFDF91CF911F910F91FF90EF90DF908D
S1130640CF90089582309105A9F02CF4009749F0D9
S1130650019759F008958330910589F00497A1F02A
S113066008958BB1877C8BB908955B9A8BB18F7C8D
S11306708BB908955C9A8BB1877D8BB908958BB142
S113068088618BB95D9808955D9A8BB1877E8BB92B
S1130690089582E00E94CB070895EF92FF920F9392
S11306A01F93CF93DF93E82ED92FF62EC42F8CEE11
S11306B00E94680781111DC0FF20B9F00E2D1D2F67
S11306C0FC0ED1E0DC0F8C2F0E949B07C82FF80191
S11306D081918F010E949B078C2B21F00E9492072D
S11306E081E008C0CD2FDF11ECCF0E94920780E09B
S11306F001C081E0DF91CF911F910F91FF90EF90A6
S11307000895CF92DF92EF92FF920F931F93CF93AE
S1130710DF936C01E62EC42F8CEE0E9468078111D2
S11307202FC08C2F0E949B07C82F8DEE0E948F072D
S11307308C2B49F4F12C81E0E81AF1081E141F04F3
S113074034F0C0E012C00E94920781E01AC0C0E0F9
S113075086010C0F111D0E94AD07F8018083CF5F45
S11307608C2F90E08E159F059CF3C6018C0F911D74
S1130770EC010E94B80788830E94920780E001C0C0
S113078081E0DF91CF911F910F91FF90EF90DF9067
S1130790CF9008950F931F93CF93DF931F92CDB7FC
S11307A0DEB7082F14E643EF61E0CE0101960E9404
S11307B08103811107C08981802329F0115099F7A1
S11307C082E001C081E00F90DF91CF911F910F91E2
S11307D008952F923F924F925F926F927F928F92E1
S11307E09F92AF92BF92CF92DF92EF92FF920F93BC
S11307F01F93CF93DF93CDB7DEB769970FB6F89405
S1130800DEBF0FBECDBF7C011B015B874A8744EF6F
S113081061E0CE0101960E948103811138C3898170
S1130820982F937079F48160898344EF61E0CE015D
S113083001960E944D0381112CC388E00E94CA03D3
S1130840811129C347EF68E0CE0102960E9481031B
S1130850182F811122C30A81EB81E88FFC81F98F63
S11308602D81822F90E0A0E0B0E0AC01BD01032E09
S11308703CE0440F551F661F771F3A95D1F7302D82
S11308808E8190E0A0E0B0E0880F991FAA1FBB1FE3
S1130890880F991FAA1FBB1F880F991FAA1FBB1F70
S11308A0880F991FAA1FBB1F482B592B6A2B7B2B20
S11308B08F8182958F702A013B01482A888590E0B8
S11308C0A0E0B0E0BA2FA92F982F882769859C0152
S11308D0AD01262B2C8B3D8B4E8B5F8B8091610160
S11308E090916201A0E0B0E053014201689413F8D2
S11308F0B594A794979487941694D1F7881A990A73
S1130900AA0ABB0AB301A201689412F87595679507
S1130910579547951694D1F7880F991FAA1FBB1FA7
S11309209A01AB01281B390B4A0B5B0BA0915F01A9
S1130930B09160010E94BA0B2B013C01032E3BE0F5
S113094075946794579447943A95D1F7302DA5013F
S11309509401C501B4010E947D0B9B01AC01012EE1
S11309601CE055954795379527951A95D1F7102D85
S1130970A0915D01B0915E010E94BA0BDC01CB0134
S1130980072E7EE0B595A795979587957A95D1F72B
S1130990702D480E591E6A1E7B1E40923E015092D5
S11309A03F016092400170924101D301C201880F5E
S11309B0991FAA1FBB1F880F991FAA1FBB1F840D55
S11309C0951DA61DB71D80589F4FAF4FBF4F892F50
S11309D09A2FAB2FBB27A7FDBA95F701808391838C
S11309E0A283B38353014201B594A7949794879447
S11309F0FAEF9F1AA108B108C501B401959587952E
S1130A007795679595958795779567959B01AC0143
S1130A100E947D0B6C877D878E879F87A0915701ED
S1130A20B09158019B01AC01012E1DE055954795ED
S1130A30379527951A95D1F7102D0E94BA0B6B01A3
S1130A407C01689412F8F594E794D794C7941694AB
S1130A50D1F7A0915901B0915A01A50194010E94C6
S1130A60BA0BDC01CB01B595A795979587958C0DAD
S1130A709D1DAE1DBF1D072E72E1B595A7959795D7
S1130A8087957A95D1F7702D9C01AD0130584F4F61
S1130A905F4FA0915B01B0915C010E94AF0B9B0181
S1130AA0AC01012E1FE055954795379527951A956A
S1130AB0D1F7102D288B398B4A8B5B8B232B242B5E
S1130AC0252B09F4FAC02C853D854E855F85012EC2
S1130AD01BE055954795379527951A95D1F7102D15
S1130AE0A0915101B09152010E94BA0B6B017C019B
S1130AF0A0915301B0915401A50194010E94BA0B35
S1130B00DC01CB01880F991FAA1FBB1FC80ED91E79
S1130B10EA1EFB1EF594E794D794C794F594E794E2
S1130B20D794C794E88D8E2F90E0A0E0B0E0880FB2
S1130B30991FAA1FBB1F880F991FAA1FBB1F880FCD
S1130B40991FAA1FBB1F880F991FAA1FBB1FF98DCE
S1130B50F295FF708F2B402F50E060E070E0032E81
S1130B603CE0440F551F661F771F3A95D1F7302D8F
S1130B70842B952BA62BB72B4091550150915601F0
S1130B80052E000C660B770BBA01552744274C0D34
S1130B905D1D6E1D7F1D032E3CE075956795579571
S1130BA047953A95D1F7302D9A01AB01280F391F9B
S1130BB04A1F5B1FABECB3EF0E94BD0B805B9C43F1
S1130BC099236CF0660F771F881F991F288939892C
S1130BD04A895B890E948D0B69017A010CC02889BE
S1130BE039894A895B890E948D0B69017A01CC0C91
S1130BF0DD1CEE1CFF1CC701B601689412F8969523
S1130C008795779567951694D1F79B01AC010E945F
S1130C107D0B9B01AC01012E1DE056954795379540
S1130C2027951A95D1F7102DA0914B01B0914C0145
S1130C300E94BA0B4B015C01072E7CE0B594A7948B
S1130C40979487947A95D1F7702DA70196015695BC
S1130C504795379527955695479537952795A091AC
S1130C604D01B0914E010E94BA0BDC01CB01072E5D
S1130C707DE0B595A795979587957A95D1F7702DD1
S1130C80880E991EAA1EBB1E80914F01909150019F
S1130C90092E000CAA0BBB0B880E991EAA1EBB1EA4
S1130CA0689413F8B594A794979487941694D1F7FD
S1130CB0C80CD91CEA1CFB1C03C0C12CD12C760126
S1130CC0D101CD92DD92ED92FC9213975301420132
S1130CD0BCE29B1AB1E0AB0AB108CC88DD88EE888F
S1130CE0FF880B2EBEE0CC0CDD1CEE1CFF1CBA955D
S1130CF0D1F7B02D8091450190914601092E000C49
S1130D00AA0BBB0B072E74E1880F991FAA1FBB1FE8
S1130D107A95D1F7702DC81AD90AEA0AFB0AA0916C
S1130D204301B0914401A50194010E94BA0BC61A73
S1130D30D70AE80AF90AE0E4DE0EE11CF11C0B2EE6
S1130D40BFE0F594E794D794C794BA95D1F7B02D42
S1130D50A0914701B0E00E94AF0B2B013C01032E90
S1130D603BE075946794579447943A95D1F7302DA6
S1130D70F0E85F0E611C711CA09142010A2E000C68
S1130D80BB0B0E94BA0B052E5AE095958795779573
S1130D9067955A95D1F7502DA30192010E947D0BBE
S1130DA0DC01CB01072E7AE0B595A7959795879539
S1130DB07A95D1F7702D9C01AD01405E5F4FA091F3
S1130DC04801B09149010E94BA0BDC01CB01905E4D
S1130DD0AF4FBF4FBC01CD01052E5EE095958795C1
S1130DE0779567955A95D1F7502DA70196010E94E2
S1130DF07D0B6B017C01052E5FE0959587957795BA
S1130E0067955A95D1F7502D9B01AC010E947D0B3B
S1130E109B01AC01689416F855954795379527952D
S1130E201694D1F7A0914A01B0E00E94AF0BDC0107
S1130E30CB01689413F8B595A79597958795169463
S1130E40D1F7A7019601281B390B4A0B5B0BDA017A
S1130E50C9011AF480E090E0DC0181309105A1051C
S1130E6039E1B30724F080E090E0A0E0B9E1072E77
S1130E707CE0B595A795979587957A95D1F7702DD0
S1130E80EA85FB8580839183A283B38307C011E045
S1130E9005C011E003C011E001C011E0812F699683
S1130EA00FB6F894DEBF0FBECDBFDF91CF911F9177
S1130EB00F91FF90EF90DF90CF90BF90AF909F90F5
S1130EC08F907F906F905F904F903F902F900895F8
S1130ED094EA9093BC00ECEBF0E090819923ECF75A
S1130EE09091B900987F983011F09031A1F48093DB
S1130EF0BB0084E88093BC00ECEBF0E080818823A5
S1130F00ECF79091B900987F983139F081E09034F2
S1130F1029F480E0089581E0089580E008950E9416
S1130F206807089584E98093BC00ECEBF0E08081CD
S1130F3084FDFDCF08958093BB0084E88093BC00BA
S1130F40ECEBF0E080818823ECF79091B900987F76
S1130F5081E0983209F480E0089584EC8093BC0029
S1130F60ECEBF0E080818823ECF78091BB000895DE
S1130F7084E88093BC00ECEBF0E080818823ECF7FC
S1130F808091BB00089580E090E00E94220387E0F6
S1130F900E94CB070895ECE7F0E09081907F908366
S1130FA09081892B8083EAE7F0E0808180648083EC
S1130FB0808184FFFDCFEAE7F0E080818061808357
S1130FC080917800909179000895CF92DF92EF920A
S1130FD0FF92CF93DF933898419A80E00E94CB0729
S1130FE0EC014198389ABC01990F880B990B0E9427
S1130FF0840A2AE037ED43EC51E40E94100B6B01A4
S11310007C016FEF73E06C1B7D0B072E000C880BCB
S1131010990B0E94840A9B01AC01C701B6010E948E
S1131020DA09DF91CF91FF90EF90DF90CF90089590
S113103086E00E94CB070895CF93DF930E943E0180
S1131040EC0185E290E09983888321E02A839C83E4
S11310508B8322E02D839F838E8325E028879A87C4
S1131060898723E02B879D878C8784E08E87CE0138
S11310700E94A501CE01DF91CF910895CF92DF9216
S1131080EF92FF920F931F93CF93DF93CDB7DEB709
S1131090C554D1090FB6F894DEBF0FBECDBFBC0155
S11310A08E010F5F1F4FC8010E94FB0CF8010190D5
S11310B00020E9F73197CF01801B910B8C014E97EB
S11310C0BCF0CE0101962DE1FC0111922A95E9F7BD
S11310D027E1E7E2F1E0DC0101900D922A95E1F7C6
S11310E0FC0101900020E9F731978F01081B190BCF
S11310F085E0E2E2F1E0DE015E9601900D928A95D0
S1131100E1F70E941C086C010E948A017E01F5E24D
S1131110EF0EF11CA801BE016F5F7F4FC7010E9453
S1131120F20CF70101900020E9F7EE192696EFAFD3
S11311302697AE014D5D5F4FBE01625E7F4FC601D3
S11311400E94B202CB5BDF4F0FB6F894DEBF0FBE36
S1131150CDBFDF91CF911F910F91FF90EF90DF9062
S1131160CF9008958F3F910509F01CF4E1E0F0E081
S113117002C0E2E0F0E0803191050CF044C08A3016
S1131180910534F44AE066E871E00E94020D089586
S11311908C309105E1F034F48A30910551F00B97CD
S11311A079F008958E30910501F1C4F00F9721F183
S11311B0089581E490E090938701809386010895D7
S11311C082E490E09093870180938601089583E4FC
S11311D090E09093870180938601089584E490E0E1
S11311E09093870180938601089585E490E090931D
S11311F0870180938601089586E490E090938701A7
S1131200809386010895092E000CAA0BBB0B00974E
S1131210A105B105A9F1E957FE4FAC01BD014F701D
S1131220552766277078772364F441505109610982
S11312307109406F5F6F6F6F7F6F4F5F5F4F6F4FCD
S11312407F4F4A3051051CF4405D5F4F02C0495C3A
S11312505F4F4293AC01BD01BB2324F4415F5F4F58
S11312606F4F7F4FDB01CA01689413F8B595A795BA
S1131270979587951694D1F70097A105B10569F65E
S11312800895CF93DF9383E090E00E94220387E0E8
S11312900E94CB07EC0182E090E00E94D10B9E01FA
S11312A0275E31092331310528F42EE430E0FC01B6
S11312B0318320839E012F5631092732310530F4C2
S11312C02EE435E4FC013183208312829E012B50ED
S11312D031092138310528F425E430E0FC0131835B
S11312E020839E01295433402732310530F423E50D
S11312F035E4FC013183208312829E01275C324055
S11313002732310528F423E530E0FC0131832083C2
S11313109E012F5432402732310530F423E537E55E
S1131320FC013183208312829E012B5E31402732DF
S1131330310528F427E530E0FC0131832083C555CD
S1131340D140A79730F42EE437E5FC0131832083A4
S11313501282DF91CF910895CF93C82F8A3019F468
S11313608DE00E94AC09E0ECF0E0808185FFFDCFC8
S1131370C093C60080E090E0CF910895E0ECF0E0E7
S113138080818823ECF78091C60090E00895109244
S1131390C50087E68093C40088E18093C100EFE82C
S11313A0F1E084E191E09383828386E091E091838C
S11313B0808308950E94EE090C94D60A0E94CF0AF5
S11313C058F00E94C80A40F029F45F3F29F00C94B9
S11313D0BF0A51110C940A0B0C94C50A0E94E70A27
S11313E068F39923B1F3552391F3951B550BBB2750
S11313F0AA2762177307840738F09F5F5F4F220F95
S1131400331F441FAA1FA9F335D00E2E3AF0E0E88B
S113141032D091505040E695001CCAF72BD0FE2FD5
S113142029D0660F771F881FBB1F26173707480769
S1131430AB07B0E809F0BB0B802DBF01FF27935821
S11314405F4F3AF09E3F510578F00C94BF0A0C941C
S11314500A0B5F3FE4F3983ED4F38695779567953E
S1131460B795F7959F5FC9F7880F911D9695879556
S113147097F90895E1E0660F771F881FBB1F621775
S113148073078407BA0720F0621B730B840BBA0B33
S1131490EE1F88F7E09508950E94530A6894B111ED
S11314A00C940A0B08950E94EF0A88F09F5798F055
S11314B0B92F9927B751B0F0E1F0660F771F881F55
S11314C0991F1AF0BA95C9F714C0B13091F00E946F
S11314D0090BB1E008950C94090B672F782F882726
S11314E0B85F39F0B93FCCF3869577956795B39596
S11314F0D9F73EF490958095709561957F4F8F4F05
S11315009F4F0895E89409C097FB3EF49095809509
S1131510709561957F4F8F4F9F4F9923A9F0F92FB5
S113152096E9BB279395F695879577956795B79533
S1131530F111F8CFFAF4BB0F11F460FF1BC06F5F19
S11315407F4F8F4F9F4F16C0882311F096E911C02B
S1131550772321F09EE8872F762F05C0662371F04C
S113156096E8862F70E060E02AF09A95660F771F60
S1131570881FDAF7880F9695879597F9089597F954
S11315809F6780E870E060E008959FEF80EC089525
S113159000240A941616170618060906089500244E
S11315A00A9412161306140605060895092E0394C8
S11315B0000C11F4882352F0BB0F40F4BF2B11F43C
S11315C060FF04C06F5F7F4F8F4F9F4F089557FD9B
S11315D09058440F551F59F05F3F71F04795880F9D
S11315E097FB991F61F09F3F79F087950895121634
S11315F013061406551FF2CF4695F1DF08C01616E0
S113160017061806991FF1CF869571056105089490
S11316100895E894BB2766277727CB0197F90895A7
S11316200E94230B0C94D60A0E94C80A38F00E9428
S1131630CF0A20F0952311F00C94BF0A0C94C50A2C
S113164011240C940A0B0E94E70A70F3959FC1F3CE
S1131650950F50E0551F629FF001729FBB27F00D5C
S1131660B11D639FAA27F00DB11DAA1F649F6627B1
S1131670B00DA11D661F829F2227B00DA11D621F00
S1131680739FB00DA11D621F839FA00D611D221FBA
S1131690749F3327A00D611D231F849F600D211D9E
S11316A0822F762F6A2F11249F5750409AF0F1F021
S11316B088234AF0EE0FFF1FBB1F661F771F881F8A
S11316C091505040A9F79E3F510580F00C94BF0AF9
S11316D00C940A0B5F3FE4F3983ED4F38695779518
S11316E06795B795F795E7959F5FC1F7FE2B880F30
S11316F0911D9695879597F90895DB018F939F9394
S11317000E94AF0BBF91AF91A29F800D911DA39F2B
S1131710900DB29F900D11240895A1E21A2EAA1BD8
S1131720BB1BFD010DC0AA1FBB1FEE1FFF1FA2178D
S1131730B307E407F50720F0A21BB30BE40BF50B8A
S1131740661F771F881F991F1A9469F76095709513
S1131750809590959B01AC01BD01CF0108950E9435
S1131760C20BA59F900DB49F900DA49F800D911D59
S113177011240895B7FF0C94AF0B0E94AF0B821B8A
S1131780930B0895A29FB001B39FC001A39F700D56
S1131790811D1124911DB29F700D811D1124911D75
S11317A008950F931F93CF93DF938230910510F424
S11317B082E090E0E0918D01F0918E0120E030E034
S11317C0A0E0B0E0309719F140815181028113818A
S11317D048175907C8F08417950769F4109731F032
S11317E012960C93129713961C9327C000938D01A5
S11317F010938E0122C02115310519F042175307A9
S113180018F49A01BD01EF01DF01F801DBCF2115C6
S11318103105F9F0281B390B2430310580F48A8115
S11318209B816115710521F0FB019383828304C0C0
S113183090938E0180938D01FE01329644C0FE0187
S1131840E20FF31F81939193225031093983288346
S11318503AC020918B0130918C01232B41F42091CB
S113186002013091030130938C0120938B0120916C
S11318700001309101012115310541F42DB73EB726
S11318804091040150910501241B350BE0918B011B
S1131890F0918C01E217F307A0F42E1B3F0B2817DD
S11318A0390778F0AC014E5F5F4F2417350748F0D5
S11318B04E0F5F1F50938C0140938B018193919342
S11318C002C0E0E0F0E0CF01DF91CF911F910F91D2
S11318D00895CF93DF93009709F481C0FC013297F8
S11318E013821282A0918D01B0918E01109781F420
S11318F020813181820F931F20918B0130918C01C3
S11319002817390751F5F0938C01E0938B0167C0D8
S1131910ED0120E030E0CE17DF0740F44A815B811F
S11319209E0141155105F1F0EA01F5CFD383C2833D
S113193040815181840F951FC817D90759F48881B4
S11319409981840F951F0296918380838A819B815C
S1131950938382832115310529F4F0938E01E0935A
S11319608D013DC0E901FB83EA8349915991C40F7C
S1131970D51FEC17FD0761F480819181840F951FB9
S11319800296E90199838883828193819B838A8368
S1131990E0E0F0E012968D919C911397009719F076
S11319A0FD01DC01F7CF8D919C9111979D012E5F74
S11319B03F4F820F931F20918B0130918C01281788
S11319C0390769F4309729F410928E0110928D0131
S11319D002C013821282B0938C01A0938B01DF9119
S11319E0CF910895FB01DC0102C001900D9241509A
S11319F05040D8F70895FB01DC0101900D920020BE
S1131A00E1F70895BB274A3031F4992322F4BDE26B
S1131A10909581959F4F0C940E0DBB27FB01552784
S1131A20AA27880F991FAA1FA41710F0A41B839537
S1131A305051B9F7A05DAA3308F0A95DA1930097AE
S1131A4079F7B111B1931192CB010C94270DDC01FC
S1131A50FC01672F71917723E1F7329704C07C91E1
S1131A606D9370836291AE17BF07C8F30895F99917
S1131A70FECF92BD81BDF89A992780B50895F89458
S1051A80FFCF92
S1131A820000950120000000000100000000000099
S1131A92BE0900000000000200000000AC090000C2
S1131AA20000E7E7E7E7E74572726F723A20737462
S1111AB272696E6720746F6F206C6F6E670030
S9030000FC
