:100000000C9434000C943E000C943E000C943E0082
:100010000C943E000C943E000C943E000C943E0068
:100020000C943E000C943E000C943E000C943E0058
:100030000C943E000C943E000C943E000C943E0048
:100040000C943E000C943E000C943E000C943E0038
:100050000C943E000C943E000C943E000C943E0028
:100060000C943E000C943E0011241FBECFEFD8E04C
:10007000DEBFCDBF0E9467000C9471000C9400009D
:1000800082309105A9F02CF4009749F0019759F0BE
:1000900008958330910589F00497A1F008958BB1FC
:1000A000877C8BB908955B9A8BB18F7C8BB908954F
:1000B0005C9A8BB1877D8BB908958BB188618BB9C0
:1000C0005D9808955D9A8BB1877E8BB908958AB14A
:1000D00088638AB980E090E00E94400080E090E070
:0600E0000895F894FFCF23
:00000001FF
