S012000077696E645F73706565642E73726563F0
S11300000C9434000C9446000C9446000C94460066
S11300100C9446000C9446000C9446000C94460044
S11300200C9446000C9446000C9446000C94460034
S11300300C9446000C9446000C9446000C94460024
S11300400C9446000C9446000C9446000C94460014
S11300500C946A000C9446000C9446000C944600E0
S11300600C9446000C94460011241FBECFEFD8E038
S1130070DEBFCDBF21E0A0E0B1E001C01D92A238F7
S1130080B207E1F70E9448000C9493000C9400001E
S11300901092C50087E68093C40088E48093C10071
S11300A086E08093C20080E480937C0087E880939C
S11300B07A0078948AE090E02FEF33ED40E321500A
S11300C030404040E1F700C000000197A9F780E00C
S11300D090E008951F920F920FB60F9211248F9300
S11300E09F93EF93FF93E091010180910001E81742
S11300F089F0F0E0EE5FFE4F80818093C60080912E
S1130100010191E0980F1AF09093010103C08E5FF2
S113011080930101FF91EF919F918F910F900FBEFA
S10D01200F901F901895F894FFCF7C
S9030000FC
